{
  "_format": "hh-sol-artifact-1",
  "contractName": "StreamRegistry",
  "sourceName": "contracts/StreamRegistry/StreamRegistry.sol",
  "abi": [
    {
      "inputs": [
        {
          "internalType": "address",
          "name": "ensCacheAddr",
          "type": "address"
        },
        {
          "internalType": "address",
          "name": "trustedForwarderAddress",
          "type": "address"
        }
      ],
      "stateMutability": "nonpayable",
      "type": "constructor"
    },
    {
      "anonymous": false,
      "inputs": [
        {
          "indexed": false,
          "internalType": "string",
          "name": "streamId",
          "type": "string"
        },
        {
          "indexed": false,
          "internalType": "address",
          "name": "user",
          "type": "address"
        },
        {
          "indexed": false,
          "internalType": "bool",
          "name": "edit",
          "type": "bool"
        },
        {
          "indexed": false,
          "internalType": "bool",
          "name": "canDelete",
          "type": "bool"
        },
        {
          "indexed": false,
          "internalType": "uint256",
          "name": "publishExpiration",
          "type": "uint256"
        },
        {
          "indexed": false,
          "internalType": "uint256",
          "name": "subscribeExpiration",
          "type": "uint256"
        },
        {
          "indexed": false,
          "internalType": "bool",
          "name": "share",
          "type": "bool"
        }
      ],
      "name": "PermissionUpdated",
      "type": "event"
    },
    {
      "anonymous": false,
      "inputs": [
        {
          "indexed": true,
          "internalType": "bytes32",
          "name": "role",
          "type": "bytes32"
        },
        {
          "indexed": true,
          "internalType": "bytes32",
          "name": "previousAdminRole",
          "type": "bytes32"
        },
        {
          "indexed": true,
          "internalType": "bytes32",
          "name": "newAdminRole",
          "type": "bytes32"
        }
      ],
      "name": "RoleAdminChanged",
      "type": "event"
    },
    {
      "anonymous": false,
      "inputs": [
        {
          "indexed": true,
          "internalType": "bytes32",
          "name": "role",
          "type": "bytes32"
        },
        {
          "indexed": true,
          "internalType": "address",
          "name": "account",
          "type": "address"
        },
        {
          "indexed": true,
          "internalType": "address",
          "name": "sender",
          "type": "address"
        }
      ],
      "name": "RoleGranted",
      "type": "event"
    },
    {
      "anonymous": false,
      "inputs": [
        {
          "indexed": true,
          "internalType": "bytes32",
          "name": "role",
          "type": "bytes32"
        },
        {
          "indexed": true,
          "internalType": "address",
          "name": "account",
          "type": "address"
        },
        {
          "indexed": true,
          "internalType": "address",
          "name": "sender",
          "type": "address"
        }
      ],
      "name": "RoleRevoked",
      "type": "event"
    },
    {
      "anonymous": false,
      "inputs": [
        {
          "indexed": false,
          "internalType": "string",
          "name": "id",
          "type": "string"
        },
        {
          "indexed": false,
          "internalType": "string",
          "name": "metadata",
          "type": "string"
        }
      ],
      "name": "StreamCreated",
      "type": "event"
    },
    {
      "anonymous": false,
      "inputs": [
        {
          "indexed": false,
          "internalType": "string",
          "name": "id",
          "type": "string"
        }
      ],
      "name": "StreamDeleted",
      "type": "event"
    },
    {
      "anonymous": false,
      "inputs": [
        {
          "indexed": false,
          "internalType": "string",
          "name": "id",
          "type": "string"
        },
        {
          "indexed": false,
          "internalType": "string",
          "name": "metadata",
          "type": "string"
        }
      ],
      "name": "StreamUpdated",
      "type": "event"
    },
    {
      "inputs": [],
      "name": "DEFAULT_ADMIN_ROLE",
      "outputs": [
        {
          "internalType": "bytes32",
          "name": "",
          "type": "bytes32"
        }
      ],
      "stateMutability": "view",
      "type": "function"
    },
    {
      "inputs": [],
      "name": "MAX_INT",
      "outputs": [
        {
          "internalType": "uint256",
          "name": "",
          "type": "uint256"
        }
      ],
      "stateMutability": "view",
      "type": "function"
    },
    {
      "inputs": [],
      "name": "TRUSTED_ROLE",
      "outputs": [
        {
          "internalType": "bytes32",
          "name": "",
          "type": "bytes32"
        }
      ],
      "stateMutability": "view",
      "type": "function"
    },
    {
      "inputs": [],
      "name": "_trustedForwarder",
      "outputs": [
        {
          "internalType": "address",
          "name": "",
          "type": "address"
        }
      ],
      "stateMutability": "view",
      "type": "function"
    },
    {
      "inputs": [
        {
          "internalType": "address",
          "name": "_address",
          "type": "address"
        }
      ],
      "name": "addressToString",
      "outputs": [
        {
          "internalType": "string",
          "name": "",
          "type": "string"
        }
      ],
      "stateMutability": "pure",
      "type": "function"
    },
    {
      "inputs": [
        {
          "internalType": "string",
          "name": "streamIdPath",
          "type": "string"
        },
        {
          "internalType": "string",
          "name": "metadataJsonString",
          "type": "string"
        }
      ],
      "name": "createStream",
      "outputs": [],
      "stateMutability": "nonpayable",
      "type": "function"
    },
    {
      "inputs": [
        {
          "internalType": "string",
          "name": "ensName",
          "type": "string"
        },
        {
          "internalType": "string",
          "name": "streamIdPath",
          "type": "string"
        },
        {
          "internalType": "string",
          "name": "metadataJsonString",
          "type": "string"
        }
      ],
      "name": "createStreamWithENS",
      "outputs": [],
      "stateMutability": "nonpayable",
      "type": "function"
    },
    {
      "inputs": [
        {
          "internalType": "string",
          "name": "streamId",
          "type": "string"
        }
      ],
      "name": "deleteStream",
      "outputs": [],
      "stateMutability": "nonpayable",
      "type": "function"
    },
    {
      "inputs": [
        {
          "internalType": "string",
          "name": "streamId",
          "type": "string"
        },
        {
          "internalType": "address",
          "name": "user",
          "type": "address"
        }
      ],
      "name": "getAddressKey",
      "outputs": [
        {
          "internalType": "bytes32",
          "name": "",
          "type": "bytes32"
        }
      ],
      "stateMutability": "view",
      "type": "function"
    },
    {
      "inputs": [
        {
          "internalType": "string",
          "name": "streamId",
          "type": "string"
        },
        {
          "internalType": "address",
          "name": "user",
          "type": "address"
        }
      ],
      "name": "getDirectPermissionsForUser",
      "outputs": [
        {
          "components": [
            {
              "internalType": "bool",
              "name": "edit",
              "type": "bool"
            },
            {
              "internalType": "bool",
              "name": "canDelete",
              "type": "bool"
            },
            {
              "internalType": "uint256",
              "name": "publishExpiration",
              "type": "uint256"
            },
            {
              "internalType": "uint256",
              "name": "subscribeExpiration",
              "type": "uint256"
            },
            {
              "internalType": "bool",
              "name": "share",
              "type": "bool"
            }
          ],
          "internalType": "struct StreamRegistry.Permission",
          "name": "permission",
          "type": "tuple"
        }
      ],
      "stateMutability": "view",
      "type": "function"
    },
    {
      "inputs": [
        {
          "internalType": "string",
          "name": "streamId",
          "type": "string"
        },
        {
          "internalType": "address",
          "name": "user",
          "type": "address"
        }
      ],
      "name": "getPermissionsForUser",
      "outputs": [
        {
          "components": [
            {
              "internalType": "bool",
              "name": "edit",
              "type": "bool"
            },
            {
              "internalType": "bool",
              "name": "canDelete",
              "type": "bool"
            },
            {
              "internalType": "uint256",
              "name": "publishExpiration",
              "type": "uint256"
            },
            {
              "internalType": "uint256",
              "name": "subscribeExpiration",
              "type": "uint256"
            },
            {
              "internalType": "bool",
              "name": "share",
              "type": "bool"
            }
          ],
          "internalType": "struct StreamRegistry.Permission",
          "name": "permission",
          "type": "tuple"
        }
      ],
      "stateMutability": "view",
      "type": "function"
    },
    {
      "inputs": [
        {
          "internalType": "bytes32",
          "name": "role",
          "type": "bytes32"
        }
      ],
      "name": "getRoleAdmin",
      "outputs": [
        {
          "internalType": "bytes32",
          "name": "",
          "type": "bytes32"
        }
      ],
      "stateMutability": "view",
      "type": "function"
    },
    {
      "inputs": [
        {
          "internalType": "string",
          "name": "streamId",
          "type": "string"
        }
      ],
      "name": "getStreamMetadata",
      "outputs": [
        {
          "internalType": "string",
          "name": "des",
          "type": "string"
        }
      ],
      "stateMutability": "view",
      "type": "function"
    },
    {
      "inputs": [
        {
          "internalType": "string",
          "name": "streamId",
          "type": "string"
        },
        {
          "internalType": "address",
          "name": "user",
          "type": "address"
        },
        {
          "internalType": "enum StreamRegistry.PermissionType",
          "name": "permissionType",
          "type": "uint8"
        }
      ],
      "name": "grantPermission",
      "outputs": [],
      "stateMutability": "nonpayable",
      "type": "function"
    },
    {
      "inputs": [
        {
          "internalType": "string",
          "name": "streamId",
          "type": "string"
        },
        {
          "internalType": "enum StreamRegistry.PermissionType",
          "name": "permissionType",
          "type": "uint8"
        }
      ],
      "name": "grantPublicPermission",
      "outputs": [],
      "stateMutability": "nonpayable",
      "type": "function"
    },
    {
      "inputs": [
        {
          "internalType": "bytes32",
          "name": "role",
          "type": "bytes32"
        },
        {
          "internalType": "address",
          "name": "account",
          "type": "address"
        }
      ],
      "name": "grantRole",
      "outputs": [],
      "stateMutability": "nonpayable",
      "type": "function"
    },
    {
      "inputs": [
        {
          "internalType": "string",
          "name": "streamId",
          "type": "string"
        },
        {
          "internalType": "address",
          "name": "user",
          "type": "address"
        },
        {
          "internalType": "enum StreamRegistry.PermissionType",
          "name": "permissionType",
          "type": "uint8"
        }
      ],
      "name": "hasDirectPermission",
      "outputs": [
        {
          "internalType": "bool",
          "name": "userHasPermission",
          "type": "bool"
        }
      ],
      "stateMutability": "view",
      "type": "function"
    },
    {
      "inputs": [
        {
          "internalType": "string",
          "name": "streamId",
          "type": "string"
        },
        {
          "internalType": "address",
          "name": "user",
          "type": "address"
        },
        {
          "internalType": "enum StreamRegistry.PermissionType",
          "name": "permissionType",
          "type": "uint8"
        }
      ],
      "name": "hasPermission",
      "outputs": [
        {
          "internalType": "bool",
          "name": "userHasPermission",
          "type": "bool"
        }
      ],
      "stateMutability": "view",
      "type": "function"
    },
    {
      "inputs": [
        {
          "internalType": "bytes32",
          "name": "role",
          "type": "bytes32"
        },
        {
          "internalType": "address",
          "name": "account",
          "type": "address"
        }
      ],
      "name": "hasRole",
      "outputs": [
        {
          "internalType": "bool",
          "name": "",
          "type": "bool"
        }
      ],
      "stateMutability": "view",
      "type": "function"
    },
    {
      "inputs": [
        {
          "internalType": "address",
          "name": "forwarder",
          "type": "address"
        }
      ],
      "name": "isTrustedForwarder",
      "outputs": [
        {
          "internalType": "bool",
          "name": "",
          "type": "bool"
        }
      ],
      "stateMutability": "view",
      "type": "function"
    },
    {
      "inputs": [
        {
          "internalType": "bytes32",
          "name": "role",
          "type": "bytes32"
        },
        {
          "internalType": "address",
          "name": "account",
          "type": "address"
        }
      ],
      "name": "renounceRole",
      "outputs": [],
      "stateMutability": "nonpayable",
      "type": "function"
    },
    {
      "inputs": [
        {
          "internalType": "string",
          "name": "streamId",
          "type": "string"
        },
        {
          "internalType": "address",
          "name": "user",
          "type": "address"
        }
      ],
      "name": "revokeAllPermissionsForUser",
      "outputs": [],
      "stateMutability": "nonpayable",
      "type": "function"
    },
    {
      "inputs": [
        {
          "internalType": "string",
          "name": "streamId",
          "type": "string"
        },
        {
          "internalType": "address",
          "name": "user",
          "type": "address"
        },
        {
          "internalType": "enum StreamRegistry.PermissionType",
          "name": "permissionType",
          "type": "uint8"
        }
      ],
      "name": "revokePermission",
      "outputs": [],
      "stateMutability": "nonpayable",
      "type": "function"
    },
    {
      "inputs": [
        {
          "internalType": "string",
          "name": "streamId",
          "type": "string"
        },
        {
          "internalType": "enum StreamRegistry.PermissionType",
          "name": "permissionType",
          "type": "uint8"
        }
      ],
      "name": "revokePublicPermission",
      "outputs": [],
      "stateMutability": "nonpayable",
      "type": "function"
    },
    {
      "inputs": [
        {
          "internalType": "bytes32",
          "name": "role",
          "type": "bytes32"
        },
        {
          "internalType": "address",
          "name": "account",
          "type": "address"
        }
      ],
      "name": "revokeRole",
      "outputs": [],
      "stateMutability": "nonpayable",
      "type": "function"
    },
    {
      "inputs": [
        {
          "internalType": "string",
          "name": "streamId",
          "type": "string"
        },
        {
          "internalType": "address",
          "name": "user",
          "type": "address"
        },
        {
          "internalType": "enum StreamRegistry.PermissionType",
          "name": "permissionType",
          "type": "uint8"
        },
        {
          "internalType": "uint256",
          "name": "expirationTime",
          "type": "uint256"
        }
      ],
      "name": "setExpirationTime",
      "outputs": [],
      "stateMutability": "nonpayable",
      "type": "function"
    },
    {
      "inputs": [
        {
          "internalType": "string",
          "name": "streamId",
          "type": "string"
        },
        {
          "internalType": "address",
          "name": "user",
          "type": "address"
        },
        {
          "internalType": "bool",
          "name": "edit",
          "type": "bool"
        },
        {
          "internalType": "bool",
          "name": "deletePerm",
          "type": "bool"
        },
        {
          "internalType": "uint256",
          "name": "publishExpiration",
          "type": "uint256"
        },
        {
          "internalType": "uint256",
          "name": "subscribeExpiration",
          "type": "uint256"
        },
        {
          "internalType": "bool",
          "name": "share",
          "type": "bool"
        }
      ],
      "name": "setPermissionsForUser",
      "outputs": [],
      "stateMutability": "nonpayable",
      "type": "function"
    },
    {
      "inputs": [
        {
          "internalType": "string",
          "name": "streamId",
          "type": "string"
        },
        {
          "internalType": "uint256",
          "name": "publishExpiration",
          "type": "uint256"
        },
        {
          "internalType": "uint256",
          "name": "subscribeExpiration",
          "type": "uint256"
        }
      ],
      "name": "setPublicPermission",
      "outputs": [],
      "stateMutability": "nonpayable",
      "type": "function"
    },
    {
      "inputs": [
        {
          "internalType": "string",
          "name": "",
          "type": "string"
        }
      ],
      "name": "streamIdToMetadata",
      "outputs": [
        {
          "internalType": "string",
          "name": "",
          "type": "string"
        }
      ],
      "stateMutability": "view",
      "type": "function"
    },
    {
      "inputs": [
        {
          "internalType": "string",
          "name": "",
          "type": "string"
        },
        {
          "internalType": "bytes32",
          "name": "",
          "type": "bytes32"
        }
      ],
      "name": "streamIdToPermissions",
      "outputs": [
        {
          "internalType": "bool",
          "name": "edit",
          "type": "bool"
        },
        {
          "internalType": "bool",
          "name": "canDelete",
          "type": "bool"
        },
        {
          "internalType": "uint256",
          "name": "publishExpiration",
          "type": "uint256"
        },
        {
          "internalType": "uint256",
          "name": "subscribeExpiration",
          "type": "uint256"
        },
        {
          "internalType": "bool",
          "name": "share",
          "type": "bool"
        }
      ],
      "stateMutability": "view",
      "type": "function"
    },
    {
      "inputs": [
        {
          "internalType": "bytes4",
          "name": "interfaceId",
          "type": "bytes4"
        }
      ],
      "name": "supportsInterface",
      "outputs": [
        {
          "internalType": "bool",
          "name": "",
          "type": "bool"
        }
      ],
      "stateMutability": "view",
      "type": "function"
    },
    {
      "inputs": [
        {
          "internalType": "string",
          "name": "streamId",
          "type": "string"
        },
        {
          "internalType": "address",
          "name": "recipient",
          "type": "address"
        }
      ],
      "name": "transferAllPermissionsToUser",
      "outputs": [],
      "stateMutability": "nonpayable",
      "type": "function"
    },
    {
      "inputs": [
        {
          "internalType": "string",
          "name": "streamId",
          "type": "string"
        },
        {
          "internalType": "address",
          "name": "recipient",
          "type": "address"
        },
        {
          "internalType": "enum StreamRegistry.PermissionType",
          "name": "permissionType",
          "type": "uint8"
        }
      ],
      "name": "transferPermissionToUser",
      "outputs": [],
      "stateMutability": "nonpayable",
      "type": "function"
    },
    {
      "inputs": [
        {
          "internalType": "string",
          "name": "streamId",
          "type": "string"
        },
        {
          "internalType": "address",
          "name": "user",
          "type": "address"
        },
        {
          "internalType": "bool",
          "name": "edit",
          "type": "bool"
        },
        {
          "internalType": "bool",
          "name": "deletePerm",
          "type": "bool"
        },
        {
          "internalType": "uint256",
          "name": "publishExpiration",
          "type": "uint256"
        },
        {
          "internalType": "uint256",
          "name": "subscribeExpiration",
          "type": "uint256"
        },
        {
          "internalType": "bool",
          "name": "share",
          "type": "bool"
        }
      ],
      "name": "trustedSetPermissionsForUser",
      "outputs": [],
      "stateMutability": "nonpayable",
      "type": "function"
    },
    {
      "inputs": [
        {
          "internalType": "string",
          "name": "streamId",
          "type": "string"
        },
        {
          "internalType": "string",
          "name": "metadata",
          "type": "string"
        }
      ],
      "name": "trustedSetStream",
      "outputs": [],
      "stateMutability": "nonpayable",
      "type": "function"
    },
    {
      "inputs": [
        {
          "internalType": "string",
          "name": "streamId",
          "type": "string"
        },
        {
          "internalType": "string",
          "name": "metadata",
          "type": "string"
        }
      ],
      "name": "updateStreamMetadata",
      "outputs": [],
      "stateMutability": "nonpayable",
      "type": "function"
    }
  ],
  "bytecode": "0x60806040523480156200001157600080fd5b506040516200618b3803806200618b833981810160405281019062000037919062000355565b80806000806101000a81548173ffffffffffffffffffffffffffffffffffffffff021916908373ffffffffffffffffffffffffffffffffffffffff1602179055505081600560006101000a81548173ffffffffffffffffffffffffffffffffffffffff021916908373ffffffffffffffffffffffffffffffffffffffff160217905550620000cf6000801b33620000d760201b60201c565b5050620003e4565b620000e98282620000ed60201b60201c565b5050565b620000ff8282620001de60201b60201c565b620001da57600180600084815260200190815260200160002060000160008373ffffffffffffffffffffffffffffffffffffffff1673ffffffffffffffffffffffffffffffffffffffff16815260200190815260200160002060006101000a81548160ff0219169083151502179055506200017f6200024960201b60201c565b73ffffffffffffffffffffffffffffffffffffffff168173ffffffffffffffffffffffffffffffffffffffff16837f2f8788117e7eff1d82e926ec794901d17c78024a50270940304540a733656f0d60405160405180910390a45b5050565b60006001600084815260200190815260200160002060000160008373ffffffffffffffffffffffffffffffffffffffff1673ffffffffffffffffffffffffffffffffffffffff16815260200190815260200160002060009054906101000a900460ff16905092915050565b60006200025c336200029360201b60201c565b156200027257601436033560601c90506200028f565b62000287620002ec60201b620030a91760201c565b905062000290565b5b90565b60008060009054906101000a900473ffffffffffffffffffffffffffffffffffffffff1673ffffffffffffffffffffffffffffffffffffffff168273ffffffffffffffffffffffffffffffffffffffff16149050919050565b6000620002ff336200029360201b60201c565b156200031557601436033560601c905062000332565b6200032a6200033660201b620030db1760201c565b905062000333565b5b90565b600033905090565b6000815190506200034f81620003ca565b92915050565b600080604083850312156200036957600080fd5b600062000379858286016200033e565b92505060206200038c858286016200033e565b9150509250929050565b6000620003a382620003aa565b9050919050565b600073ffffffffffffffffffffffffffffffffffffffff82169050919050565b620003d58162000396565b8114620003e157600080fd5b50565b615d9780620003f46000396000f3fe608060405234801561001057600080fd5b506004361061021c5760003560e01c80636beff96d11610125578063a217fddf116100ad578063d2d78c3e1161007c578063d2d78c3e14610655578063d547741f14610671578063e8f3828e1461068d578063f36d4849146106bd578063f7f5078c146106f15761021c565b8063a217fddf146105e3578063a8989d3f14610601578063b6a915971461061d578063ca76cc8e146106395761021c565b806388b21038116100f457806388b210381461051b5780638a043af81461054b57806391d1485414610567578063997e8aaa14610597578063a020aa97146105b35761021c565b80636beff96d1461049757806378800c76146104b35780637b3681b5146104cf57806386902fe9146104eb5761021c565b806342617fe7116101a8578063572b6c0511610177578063572b6c05146103cd5780635901692e146103fd5780635e57966d1461041b5780636394fbd21461044b5780636453cbd71461047b5761021c565b806342617fe71461035b578063466f878e1461037757806350b5422b1461039357806356c022bb146103af5761021c565b8063248a9ca3116101ef578063248a9ca3146102bb578063272cc993146102eb5780632f2ff15d1461030757806336568abe146103235780633e397aea1461033f5761021c565b806301ffc9a7146102215780630843564a14610251578063098d3228146102815780630ef8cdc71461029f575b600080fd5b61023b60048036038101906102369190614866565b610721565b60405161024891906151ec565b60405180910390f35b61026b60048036038101906102669190614cf0565b61079b565b604051610278919061525a565b60405180910390f35b6102896107fc565b6040516102969190615650565b60405180910390f35b6102b960048036038101906102b49190614b2a565b610820565b005b6102d560048036038101906102d09190614801565b610848565b6040516102e2919061525a565b60405180910390f35b61030560048036038101906103009190614ad2565b610868565b005b610321600480360381019061031c919061482a565b610953565b005b61033d6004803603810190610338919061482a565b61097c565b005b610359600480360381019061035491906149e6565b6109ff565b005b61037560048036038101906103709190614b2a565b610b2b565b005b610391600480360381019061038c9190614ad2565b610ceb565b005b6103ad60048036038101906103a891906148d4565b610dd6565b005b6103b7611008565b6040516103c491906151d1565b60405180910390f35b6103e760048036038101906103e291906147af565b61102c565b6040516103f491906151ec565b60405180910390f35b610405611085565b604051610412919061525a565b60405180910390f35b610435600480360381019061043091906147af565b6110a9565b60405161044291906153c4565b60405180910390f35b6104656004803603810190610460919061488f565b61150a565b60405161047291906153c4565b60405180910390f35b6104956004803603810190610490919061488f565b611631565b005b6104b160048036038101906104ac91906148d4565b6117e7565b005b6104cd60048036038101906104c89190614b9f565b611af5565b005b6104e960048036038101906104e49190614a52565b611c6f565b005b61050560048036038101906105009190614caf565b612082565b60405161051291906153c4565b60405180910390f35b610535600480360381019061053091906149e6565b612138565b60405161054291906151ec565b60405180910390f35b610565600480360381019061056091906149e6565b612164565b005b610581600480360381019061057c919061482a565b6121df565b60405161058e91906151ec565b60405180910390f35b6105b160048036038101906105ac91906149e6565b61224a565b005b6105cd60048036038101906105c891906148d4565b612337565b6040516105da9190615635565b60405180910390f35b6105eb6124aa565b6040516105f8919061525a565b60405180910390f35b61061b60048036038101906106169190614c43565b6124b1565b005b6106376004803603810190610632919061492c565b6125a3565b005b610653600480360381019061064e9190614b2a565b61262d565b005b61066f600480360381019061066a919061492c565b612710565b005b61068b6004803603810190610686919061482a565b612803565b005b6106a760048036038101906106a291906148d4565b61282c565b6040516106b49190615635565b60405180910390f35b6106d760048036038101906106d29190614d44565b612ae9565b6040516106e8959493929190615207565b60405180910390f35b61070b600480360381019061070691906149e6565b612b69565b60405161071891906151ec565b60405180910390f35b60007f7965db0b000000000000000000000000000000000000000000000000000000007bffffffffffffffffffffffffffffffffffffffffffffffffffffffff1916827bffffffffffffffffffffffffffffffffffffffffffffffffffffffff191614806107945750610793826130e3565b5b9050919050565b60006002836040516107ad919061515a565b908152602001604051809103902060009054906101000a900463ffffffff16826040516020016107de92919061566b565b60405160208183030381529060405280519060200120905092915050565b7fffffffffffffffffffffffffffffffffffffffffffffffffffffffffffffffff81565b600061083261082d61314d565b6110a9565b9050610841818686868661317f565b5050505050565b600060016000838152602001908152602001600020600101549050919050565b82826004828260405161087c929190615141565b908152602001604051809103902060006108e184848080601f016020809104026020016040519081016040528093929190818152602001838380828437600081840152601f19601f820116905080830192505050505050506108dc61314d565b61079b565b815260200190815260200160002060030160009054906101000a900460ff1661093f576040517f08c379a000000000000000000000000000000000000000000000000000000000815260040161093690615575565b60405180910390fd5b61094c85856000866109ff565b5050505050565b61095c82610848565b61096d8161096861314d565b6135a0565b610977838361363d565b505050565b61098461314d565b73ffffffffffffffffffffffffffffffffffffffff168173ffffffffffffffffffffffffffffffffffffffff16146109f1576040517f08c379a00000000000000000000000000000000000000000000000000000000081526004016109e8906155f5565b60405180910390fd5b6109fb828261371d565b5050565b83838360048383604051610a14929190615141565b90815260200160405180910390206000610a7985858080601f016020809104026020016040519081016040528093929190818152602001838380828437600081840152601f19601f82011690508083019250505050505050610a7461314d565b61079b565b815260200190815260200160002060030160009054906101000a900460ff1680610ad557508073ffffffffffffffffffffffffffffffffffffffff16610abd61314d565b73ffffffffffffffffffffffffffffffffffffffff16145b610b14576040517f08c379a0000000000000000000000000000000000000000000000000000000008152600401610b0b90615575565b60405180910390fd5b610b228787878760006137ff565b50505050505050565b8383600060038383604051610b41929190615141565b90815260200160405180910390208054610b5a90615907565b90501415610b9d576040517f08c379a0000000000000000000000000000000000000000000000000000000008152600401610b9490615555565b60405180910390fd5b858560048282604051610bb1929190615141565b90815260200160405180910390206000610c1684848080601f016020809104026020016040519081016040528093929190818152602001838380828437600081840152601f19601f82011690508083019250505050505050610c1161314d565b61079b565b815260200190815260200160002060000160009054906101000a900460ff16610c74576040517f08c379a0000000000000000000000000000000000000000000000000000000008152600401610c6b90615515565b60405180910390fd5b858560038a8a604051610c88929190615141565b90815260200160405180910390209190610ca3929190614552565b507fa60b7935888a7ab31214282090f1ab7207ab6d7abbf3c11080b75ce91d9a36d088888888604051610cd99493929190615389565b60405180910390a15050505050505050565b828260048282604051610cff929190615141565b90815260200160405180910390206000610d6484848080601f016020809104026020016040519081016040528093929190818152602001838380828437600081840152601f19601f82011690508083019250505050505050610d5f61314d565b61079b565b815260200190815260200160002060030160009054906101000a900460ff16610dc2576040517f08c379a0000000000000000000000000000000000000000000000000000000008152600401610db990615575565b60405180910390fd5b610dcf858560008661224a565b5050505050565b82828260048383604051610deb929190615141565b90815260200160405180910390206000610e5085858080601f016020809104026020016040519081016040528093929190818152602001838380828437600081840152601f19601f82011690508083019250505050505050610e4b61314d565b61079b565b815260200190815260200160002060030160009054906101000a900460ff1680610eac57508073ffffffffffffffffffffffffffffffffffffffff16610e9461314d565b73ffffffffffffffffffffffffffffffffffffffff16145b610eeb576040517f08c379a0000000000000000000000000000000000000000000000000000000008152600401610ee290615575565b60405180910390fd5b60048686604051610efd929190615141565b90815260200160405180910390206000610f5b88888080601f016020809104026020016040519081016040528093929190818152602001838380828437600081840152601f19601f820116905080830192505050505050508761079b565b8152602001908152602001600020600080820160006101000a81549060ff02191690556000820160016101000a81549060ff0219169055600182016000905560028201600090556003820160006101000a81549060ff021916905550507fd22d58032f55c61c3896b3f67eb399b25071b61e122a23d4cd06bc87d4b7b8c18686866000806000806000604051610ff8989796959493929190615299565b60405180910390a1505050505050565b60008054906101000a900473ffffffffffffffffffffffffffffffffffffffff1681565b60008060009054906101000a900473ffffffffffffffffffffffffffffffffffffffff1673ffffffffffffffffffffffffffffffffffffffff168273ffffffffffffffffffffffffffffffffffffffff16149050919050565b7f2de84d9fbdf6d06e2cc584295043dbd76046423b9f8bae9426d4fa5e7c03f4a781565b606060008273ffffffffffffffffffffffffffffffffffffffff1660001b905060006040518060400160405280601081526020017f303132333435363738396162636465660000000000000000000000000000000081525090506000602a67ffffffffffffffff811115611146577f4e487b7100000000000000000000000000000000000000000000000000000000600052604160045260246000fd5b6040519080825280601f01601f1916602001820160405280156111785781602001600182028036833780820191505090505b5090507f3000000000000000000000000000000000000000000000000000000000000000816000815181106111d6577f4e487b7100000000000000000000000000000000000000000000000000000000600052603260045260246000fd5b60200101907effffffffffffffffffffffffffffffffffffffffffffffffffffffffffffff1916908160001a9053507f780000000000000000000000000000000000000000000000000000000000000081600181518110611260577f4e487b7100000000000000000000000000000000000000000000000000000000600052603260045260246000fd5b60200101907effffffffffffffffffffffffffffffffffffffffffffffffffffffffffffff1916908160001a90535060005b60148110156114fe5782600485600c846112ac9190615711565b602081106112e3577f4e487b7100000000000000000000000000000000000000000000000000000000600052603260045260246000fd5b1a60f81b7effffffffffffffffffffffffffffffffffffffffffffffffffffffffffffff1916901c60f81c60ff1681518110611348577f4e487b7100000000000000000000000000000000000000000000000000000000600052603260045260246000fd5b602001015160f81c60f81b8260028361136191906157a1565b600261136d9190615711565b815181106113a4577f4e487b7100000000000000000000000000000000000000000000000000000000600052603260045260246000fd5b60200101907effffffffffffffffffffffffffffffffffffffffffffffffffffffffffffff1916908160001a90535082600f60f81b85600c846113e79190615711565b6020811061141e577f4e487b7100000000000000000000000000000000000000000000000000000000600052603260045260246000fd5b1a60f81b1660f81c60ff1681518110611460577f4e487b7100000000000000000000000000000000000000000000000000000000600052603260045260246000fd5b602001015160f81c60f81b8260028361147991906157a1565b60036114859190615711565b815181106114bc577f4e487b7100000000000000000000000000000000000000000000000000000000600052603260045260246000fd5b60200101907effffffffffffffffffffffffffffffffffffffffffffffffffffffffffffff1916908160001a90535080806114f69061596a565b915050611292565b50809350505050919050565b60608282600060038383604051611522929190615141565b9081526020016040518091039020805461153b90615907565b9050141561157e576040517f08c379a000000000000000000000000000000000000000000000000000000000815260040161157590615555565b60405180910390fd5b60038585604051611590929190615141565b908152602001604051809103902080546115a990615907565b80601f01602080910402602001604051908101604052809291908181526020018280546115d590615907565b80156116225780601f106115f757610100808354040283529160200191611622565b820191906000526020600020905b81548152906001019060200180831161160557829003601f168201915b50505050509250505092915050565b8181600060038383604051611647929190615141565b9081526020016040518091039020805461166090615907565b905014156116a3576040517f08c379a000000000000000000000000000000000000000000000000000000000815260040161169a90615555565b60405180910390fd5b8383600482826040516116b7929190615141565b9081526020016040518091039020600061171c84848080601f016020809104026020016040519081016040528093929190818152602001838380828437600081840152601f19601f8201169050808301925050505050505061171761314d565b61079b565b815260200190815260200160002060000160019054906101000a900460ff1661177a576040517f08c379a0000000000000000000000000000000000000000000000000000000008152600401611771906155d5565b60405180910390fd5b6003868660405161178c929190615141565b908152602001604051809103902060006117a691906145d8565b7f74b7395f46349d84fba706c4d226c68bbf9206c2567ae3ec2a001b5a98128eae86866040516117d7929190615275565b60405180910390a1505050505050565b6000600484846040516117fb929190615141565b9081526020016040518091039020600061186086868080601f016020809104026020016040519081016040528093929190818152602001838380828437600081840152601f19601f8201169050808301925050505050505061185b61314d565b61079b565b81526020019081526020016000206040518060a00160405290816000820160009054906101000a900460ff161515151581526020016000820160019054906101000a900460ff1615151515815260200160018201548152602001600282015481526020016003820160009054906101000a900460ff16151515158152505090508060000151806118f1575080602001515b80611900575060008160400151115b8061190f575060008160600151115b8061191b575080608001515b61195a576040517f08c379a000000000000000000000000000000000000000000000000000000000815260040161195190615595565b60405180910390fd5b60006004858560405161196e929190615141565b908152602001604051809103902060006119cc87878080601f016020809104026020016040519081016040528093929190818152602001838380828437600081840152601f19601f820116905080830192505050505050508661079b565b81526020019081526020016000206040518060a00160405290816000820160009054906101000a900460ff161515151581526020016000820160019054906101000a900460ff1615151515815260200160018201548152602001600282015481526020016003820160009054906101000a900460ff161515151581525050905060008160400151836040015111611a67578160400151611a6d565b82604001515b905060008260600151846060015111611a8a578260600151611a90565b83606001515b9050611ad2878787876000015180611aa9575086600001515b886020015180611aba575087602001515b87878b6080015180611acd57508a608001515b61405e565b611aec8787611adf61314d565b600080600080600061405e565b50505050505050565b611afd61314d565b73ffffffffffffffffffffffffffffffffffffffff16600560009054906101000a900473ffffffffffffffffffffffffffffffffffffffff1673ffffffffffffffffffffffffffffffffffffffff16632b1fd99588886040518363ffffffff1660e01b8152600401611b70929190615275565b60206040518083038186803b158015611b8857600080fd5b505afa158015611b9c573d6000803e3d6000fd5b505050506040513d601f19601f82011682018060405250810190611bc091906147d8565b73ffffffffffffffffffffffffffffffffffffffff1614611c16576040517f08c379a0000000000000000000000000000000000000000000000000000000008152600401611c0d90615615565b60405180910390fd5b611c6786868080601f016020809104026020016040519081016040528093929190818152602001838380828437600081840152601f19601f820116905080830192505050505050508585858561317f565b505050505050565b848460048282604051611c83929190615141565b90815260200160405180910390206000611ce884848080601f016020809104026020016040519081016040528093929190818152602001838380828437600081840152601f19601f82011690508083019250505050505050611ce361314d565b61079b565b815260200190815260200160002060030160009054906101000a900460ff16611d46576040517f08c379a0000000000000000000000000000000000000000000000000000000008152600401611d3d90615575565b60405180910390fd5b60036004811115611d80577f4e487b7100000000000000000000000000000000000000000000000000000000600052602160045260246000fd5b846004811115611db9577f4e487b7100000000000000000000000000000000000000000000000000000000600052602160045260246000fd5b1480611e35575060026004811115611dfa577f4e487b7100000000000000000000000000000000000000000000000000000000600052602160045260246000fd5b846004811115611e33577f4e487b7100000000000000000000000000000000000000000000000000000000600052602160045260246000fd5b145b611e74576040517f08c379a0000000000000000000000000000000000000000000000000000000008152600401611e6b906154d5565b60405180910390fd5b60026004811115611eae577f4e487b7100000000000000000000000000000000000000000000000000000000600052602160045260246000fd5b846004811115611ee7577f4e487b7100000000000000000000000000000000000000000000000000000000600052602160045260246000fd5b1415611f78578260048888604051611f00929190615141565b90815260200160405180910390206000611f5e8a8a8080601f016020809104026020016040519081016040528093929190818152602001838380828437600081840152601f19601f820116905080830192505050505050508961079b565b815260200190815260200160002060010181905550612079565b60036004811115611fb2577f4e487b7100000000000000000000000000000000000000000000000000000000600052602160045260246000fd5b846004811115611feb577f4e487b7100000000000000000000000000000000000000000000000000000000600052602160045260246000fd5b1415612078578260048888604051612004929190615141565b908152602001604051809103902060006120628a8a8080601f016020809104026020016040519081016040528093929190818152602001838380828437600081840152601f19601f820116905080830192505050505050508961079b565b8152602001908152602001600020600201819055505b5b50505050505050565b60038180516020810182018051848252602083016020850120818352809550505050505060009150905080546120b790615907565b80601f01602080910402602001604051908101604052809291908181526020018280546120e390615907565b80156121305780601f1061210557610100808354040283529160200191612130565b820191906000526020600020905b81548152906001019060200180831161211357829003601f168201915b505050505081565b600061214685858585612b69565b8061215a57506121598585600085612b69565b5b9050949350505050565b612177848461217161314d565b84612b69565b6121b6576040517f08c379a00000000000000000000000000000000000000000000000000000000081526004016121ad90615595565b60405180910390fd5b6121cb84846121c361314d565b8460006137ff565b6121d98484848460016137ff565b50505050565b60006001600084815260200190815260200160002060000160008373ffffffffffffffffffffffffffffffffffffffff1673ffffffffffffffffffffffffffffffffffffffff16815260200190815260200160002060009054906101000a900460ff16905092915050565b83836004828260405161225e929190615141565b908152602001604051809103902060006122c384848080601f016020809104026020016040519081016040528093929190818152602001838380828437600081840152601f19601f820116905080830192505050505050506122be61314d565b61079b565b815260200190815260200160002060030160009054906101000a900460ff16612321576040517f08c379a000000000000000000000000000000000000000000000000000000000815260040161231890615575565b60405180910390fd5b61232f8686868660016137ff565b505050505050565b61233f614618565b8383600060038383604051612355929190615141565b9081526020016040518091039020805461236e90615907565b905014156123b1576040517f08c379a00000000000000000000000000000000000000000000000000000000081526004016123a890615555565b60405180910390fd5b600486866040516123c3929190615141565b9081526020016040518091039020600061242188888080601f016020809104026020016040519081016040528093929190818152602001838380828437600081840152601f19601f820116905080830192505050505050508761079b565b81526020019081526020016000206040518060a00160405290816000820160009054906101000a900460ff161515151581526020016000820160019054906101000a900460ff1615151515815260200160018201548152602001600282015481526020016003820160009054906101000a900460ff161515151581525050925050509392505050565b6000801b81565b8383600482826040516124c5929190615141565b9081526020016040518091039020600061252a84848080601f016020809104026020016040519081016040528093929190818152602001838380828437600081840152601f19601f8201169050808301925050505050505061252561314d565b61079b565b815260200190815260200160002060030160009054906101000a900460ff16612588576040517f08c379a000000000000000000000000000000000000000000000000000000000815260040161257f90615575565b60405180910390fd5b61259b8686600080600089896000612710565b505050505050565b6125d47f2de84d9fbdf6d06e2cc584295043dbd76046423b9f8bae9426d4fa5e7c03f4a76125cf61314d565b6121df565b612613576040517f08c379a000000000000000000000000000000000000000000000000000000000815260040161260a90615535565b60405180910390fd5b612623888888888888888861405e565b5050505050505050565b61265e7f2de84d9fbdf6d06e2cc584295043dbd76046423b9f8bae9426d4fa5e7c03f4a761265961314d565b6121df565b61269d576040517f08c379a000000000000000000000000000000000000000000000000000000000815260040161269490615535565b60405180910390fd5b8181600386866040516126b1929190615141565b908152602001604051809103902091906126cc929190614552565b507fa60b7935888a7ab31214282090f1ab7207ab6d7abbf3c11080b75ce91d9a36d0848484846040516127029493929190615389565b60405180910390a150505050565b878760048282604051612724929190615141565b9081526020016040518091039020600061278984848080601f016020809104026020016040519081016040528093929190818152602001838380828437600081840152601f19601f8201169050808301925050505050505061278461314d565b61079b565b815260200190815260200160002060030160009054906101000a900460ff166127e7576040517f08c379a00000000000000000000000000000000000000000000000000000000081526004016127de90615575565b60405180910390fd5b6127f78a8a8a8a8a8a8a8a61405e565b50505050505050505050565b61280c82610848565b61281d8161281861314d565b6135a0565b612827838361371d565b505050565b612834614618565b838360006003838360405161284a929190615141565b9081526020016040518091039020805461286390615907565b905014156128a6576040517f08c379a000000000000000000000000000000000000000000000000000000000815260040161289d90615555565b60405180910390fd5b600486866040516128b8929190615141565b9081526020016040518091039020600061291688888080601f016020809104026020016040519081016040528093929190818152602001838380828437600081840152601f19601f820116905080830192505050505050508761079b565b81526020019081526020016000206040518060a00160405290816000820160009054906101000a900460ff161515151581526020016000820160019054906101000a900460ff1615151515815260200160018201548152602001600282015481526020016003820160009054906101000a900460ff16151515158152505092506000600487876040516129aa929190615141565b90815260200160405180910390206000612a0989898080601f016020809104026020016040519081016040528093929190818152602001838380828437600081840152601f19601f82011690508083019250505050505050600061079b565b81526020019081526020016000206040518060a00160405290816000820160009054906101000a900460ff161515151581526020016000820160019054906101000a900460ff1615151515815260200160018201548152602001600282015481526020016003820160009054906101000a900460ff1615151515815250509050428460400151108015612aa0575042816040015110155b15612ab45780604001518460400181815250505b428460600151108015612acb575042816060015110155b15612adf5780606001518460600181815250505b5050509392505050565b600482805160208101820180518482526020830160208501208183528095505050505050602052806000526040600020600091509150508060000160009054906101000a900460ff16908060000160019054906101000a900460ff16908060010154908060020154908060030160009054906101000a900460ff16905085565b6000806004811115612ba4577f4e487b7100000000000000000000000000000000000000000000000000000000600052602160045260246000fd5b826004811115612bdd577f4e487b7100000000000000000000000000000000000000000000000000000000600052602160045260246000fd5b1415612c795760048585604051612bf5929190615141565b90815260200160405180910390206000612c5387878080601f016020809104026020016040519081016040528093929190818152602001838380828437600081840152601f19601f820116905080830192505050505050508661079b565b815260200190815260200160002060000160009054906101000a900460ff1690506130a1565b60016004811115612cb3577f4e487b7100000000000000000000000000000000000000000000000000000000600052602160045260246000fd5b826004811115612cec577f4e487b7100000000000000000000000000000000000000000000000000000000600052602160045260246000fd5b1415612d885760048585604051612d04929190615141565b90815260200160405180910390206000612d6287878080601f016020809104026020016040519081016040528093929190818152602001838380828437600081840152601f19601f820116905080830192505050505050508661079b565b815260200190815260200160002060000160019054906101000a900460ff1690506130a1565b60026004811115612dc2577f4e487b7100000000000000000000000000000000000000000000000000000000600052602160045260246000fd5b826004811115612dfb577f4e487b7100000000000000000000000000000000000000000000000000000000600052602160045260246000fd5b1415612e8d574260048686604051612e14929190615141565b90815260200160405180910390206000612e7288888080601f016020809104026020016040519081016040528093929190818152602001838380828437600081840152601f19601f820116905080830192505050505050508761079b565b815260200190815260200160002060010154101590506130a1565b60036004811115612ec7577f4e487b7100000000000000000000000000000000000000000000000000000000600052602160045260246000fd5b826004811115612f00577f4e487b7100000000000000000000000000000000000000000000000000000000600052602160045260246000fd5b1415612f92574260048686604051612f19929190615141565b90815260200160405180910390206000612f7788888080601f016020809104026020016040519081016040528093929190818152602001838380828437600081840152601f19601f820116905080830192505050505050508761079b565b815260200190815260200160002060020154101590506130a1565b600480811115612fcb577f4e487b7100000000000000000000000000000000000000000000000000000000600052602160045260246000fd5b826004811115613004577f4e487b7100000000000000000000000000000000000000000000000000000000600052602160045260246000fd5b14156130a0576004858560405161301c929190615141565b9081526020016040518091039020600061307a87878080601f016020809104026020016040519081016040528093929190818152602001838380828437600081840152601f19601f820116905080830192505050505050508661079b565b815260200190815260200160002060030160009054906101000a900460ff1690506130a1565b5b949350505050565b60006130b43361102c565b156130c857601436033560601c90506130d7565b6130d06130db565b90506130d8565b5b90565b600033905090565b60007f01ffc9a7000000000000000000000000000000000000000000000000000000007bffffffffffffffffffffffffffffffffffffffffffffffffffffffff1916827bffffffffffffffffffffffffffffffffffffffffffffffffffffffff1916149050919050565b60006131583361102c565b1561316c57601436033560601c905061317b565b6131746130a9565b905061317c565b5b90565b600084848080601f016020809104026020016040519081016040528093929190818152602001838380828437600081840152601f19601f8201169050808301925050505050505090507f2f0000000000000000000000000000000000000000000000000000000000000081600081518110613223577f4e487b7100000000000000000000000000000000000000000000000000000000600052603260045260246000fd5b602001015160f81c60f81b7effffffffffffffffffffffffffffffffffffffffffffffffffffffffffffff191614613290576040517f08c379a0000000000000000000000000000000000000000000000000000000008152600401613287906154f5565b60405180910390fd5b60008686866040516020016132a793929190615171565b604051602081830303815290604052905060006003826040516132ca919061515a565b908152602001604051809103902080546132e390615907565b905014613325576040517f08c379a000000000000000000000000000000000000000000000000000000000815260040161331c906155b5565b60405180910390fd5b6001600282604051613337919061515a565b908152602001604051809103902060009054906101000a900463ffffffff166133609190615767565b600282604051613370919061515a565b908152602001604051809103902060006101000a81548163ffffffff021916908363ffffffff16021790555083836003836040516133ae919061515a565b908152602001604051809103902091906133c9929190614552565b506040518060a001604052806001151581526020016001151581526020017fffffffffffffffffffffffffffffffffffffffffffffffffffffffffffffffff81526020017fffffffffffffffffffffffffffffffffffffffffffffffffffffffffffffffff81526020016001151581525060048260405161344a919061515a565b9081526020016040518091039020600061346b8461346661314d565b61079b565b815260200190815260200160002060008201518160000160006101000a81548160ff02191690831515021790555060208201518160000160016101000a81548160ff021916908315150217905550604082015181600101556060820151816002015560808201518160030160006101000a81548160ff0219169083151502179055509050507f0db027888a30ca08149af1347f6ce2f48daffedd9d6d21ab6249c4d802ce592f8185856040516135239392919061545c565b60405180910390a17fd22d58032f55c61c3896b3f67eb399b25071b61e122a23d4cd06bc87d4b7b8c18161355561314d565b6001807fffffffffffffffffffffffffffffffffffffffffffffffffffffffffffffffff80600160405161358f97969594939291906153e6565b60405180910390a150505050505050565b6135aa82826121df565b613639576135cf8173ffffffffffffffffffffffffffffffffffffffff166014614258565b6135dd8360001c6020614258565b6040516020016135ee929190615197565b6040516020818303038152906040526040517f08c379a000000000000000000000000000000000000000000000000000000000815260040161363091906153c4565b60405180910390fd5b5050565b61364782826121df565b61371957600180600084815260200190815260200160002060000160008373ffffffffffffffffffffffffffffffffffffffff1673ffffffffffffffffffffffffffffffffffffffff16815260200190815260200160002060006101000a81548160ff0219169083151502179055506136be61314d565b73ffffffffffffffffffffffffffffffffffffffff168173ffffffffffffffffffffffffffffffffffffffff16837f2f8788117e7eff1d82e926ec794901d17c78024a50270940304540a733656f0d60405160405180910390a45b5050565b61372782826121df565b156137fb5760006001600084815260200190815260200160002060000160008373ffffffffffffffffffffffffffffffffffffffff1673ffffffffffffffffffffffffffffffffffffffff16815260200190815260200160002060006101000a81548160ff0219169083151502179055506137a061314d565b73ffffffffffffffffffffffffffffffffffffffff168173ffffffffffffffffffffffffffffffffffffffff16837ff6391f5c32d9c69d2a47ea670b442974b53935d1edc7fd64eb21e047a839171b60405160405180910390a45b5050565b600073ffffffffffffffffffffffffffffffffffffffff168373ffffffffffffffffffffffffffffffffffffffff161415806138ab575060036004811115613870577f4e487b7100000000000000000000000000000000000000000000000000000000600052602160045260246000fd5b8260048111156138a9577f4e487b7100000000000000000000000000000000000000000000000000000000600052602160045260246000fd5b145b806139265750600260048111156138eb577f4e487b7100000000000000000000000000000000000000000000000000000000600052602160045260246000fd5b826004811115613924577f4e487b7100000000000000000000000000000000000000000000000000000000600052602160045260246000fd5b145b613965576040517f08c379a000000000000000000000000000000000000000000000000000000000815260040161395c906154b5565b60405180910390fd5b6000600481111561399f577f4e487b7100000000000000000000000000000000000000000000000000000000600052602160045260246000fd5b8260048111156139d8577f4e487b7100000000000000000000000000000000000000000000000000000000600052602160045260246000fd5b1415613a7c5780600486866040516139f1929190615141565b90815260200160405180910390206000613a4f88888080601f016020809104026020016040519081016040528093929190818152602001838380828437600081840152601f19601f820116905080830192505050505050508761079b565b815260200190815260200160002060000160006101000a81548160ff021916908315150217905550613f0b565b60016004811115613ab6577f4e487b7100000000000000000000000000000000000000000000000000000000600052602160045260246000fd5b826004811115613aef577f4e487b7100000000000000000000000000000000000000000000000000000000600052602160045260246000fd5b1415613b93578060048686604051613b08929190615141565b90815260200160405180910390206000613b6688888080601f016020809104026020016040519081016040528093929190818152602001838380828437600081840152601f19601f820116905080830192505050505050508761079b565b815260200190815260200160002060000160016101000a81548160ff021916908315150217905550613f0a565b60026004811115613bcd577f4e487b7100000000000000000000000000000000000000000000000000000000600052602160045260246000fd5b826004811115613c06577f4e487b7100000000000000000000000000000000000000000000000000000000600052602160045260246000fd5b1415613cc45780613c18576000613c3a565b7fffffffffffffffffffffffffffffffffffffffffffffffffffffffffffffffff5b60048686604051613c4c929190615141565b90815260200160405180910390206000613caa88888080601f016020809104026020016040519081016040528093929190818152602001838380828437600081840152601f19601f820116905080830192505050505050508761079b565b815260200190815260200160002060010181905550613f09565b60036004811115613cfe577f4e487b7100000000000000000000000000000000000000000000000000000000600052602160045260246000fd5b826004811115613d37577f4e487b7100000000000000000000000000000000000000000000000000000000600052602160045260246000fd5b1415613df55780613d49576000613d6b565b7fffffffffffffffffffffffffffffffffffffffffffffffffffffffffffffffff5b60048686604051613d7d929190615141565b90815260200160405180910390206000613ddb88888080601f016020809104026020016040519081016040528093929190818152602001838380828437600081840152601f19601f820116905080830192505050505050508761079b565b815260200190815260200160002060020181905550613f08565b600480811115613e2e577f4e487b7100000000000000000000000000000000000000000000000000000000600052602160045260246000fd5b826004811115613e67577f4e487b7100000000000000000000000000000000000000000000000000000000600052602160045260246000fd5b1415613f07578060048686604051613e80929190615141565b90815260200160405180910390206000613ede88888080601f016020809104026020016040519081016040528093929190818152602001838380828437600081840152601f19601f820116905080830192505050505050508761079b565b815260200190815260200160002060030160006101000a81548160ff0219169083151502179055505b5b5b5b5b600060048686604051613f1f929190615141565b90815260200160405180910390206000613f7d88888080601f016020809104026020016040519081016040528093929190818152602001838380828437600081840152601f19601f820116905080830192505050505050508761079b565b81526020019081526020016000206040518060a00160405290816000820160009054906101000a900460ff161515151581526020016000820160019054906101000a900460ff1615151515815260200160018201548152602001600282015481526020016003820160009054906101000a900460ff16151515158152505090507fd22d58032f55c61c3896b3f67eb399b25071b61e122a23d4cd06bc87d4b7b8c18686868460000151856020015186604001518760600151886080015160405161404e989796959493929190615311565b60405180910390a1505050505050565b600073ffffffffffffffffffffffffffffffffffffffff168673ffffffffffffffffffffffffffffffffffffffff161415806140a85750848061409e5750835b806140a65750805b155b6140e7576040517f08c379a00000000000000000000000000000000000000000000000000000000081526004016140de906154b5565b60405180910390fd5b6040518060a001604052808615158152602001851515815260200184815260200183815260200182151581525060048989604051614126929190615141565b908152602001604051809103902060006141848b8b8080601f016020809104026020016040519081016040528093929190818152602001838380828437600081840152601f19601f820116905080830192505050505050508a61079b565b815260200190815260200160002060008201518160000160006101000a81548160ff02191690831515021790555060208201518160000160016101000a81548160ff021916908315150217905550604082015181600101556060820151816002015560808201518160030160006101000a81548160ff0219169083151502179055509050507fd22d58032f55c61c3896b3f67eb399b25071b61e122a23d4cd06bc87d4b7b8c18888888888888888604051614246989796959493929190615311565b60405180910390a15050505050505050565b60606000600283600261426b91906157a1565b6142759190615711565b67ffffffffffffffff8111156142b4577f4e487b7100000000000000000000000000000000000000000000000000000000600052604160045260246000fd5b6040519080825280601f01601f1916602001820160405280156142e65781602001600182028036833780820191505090505b5090507f300000000000000000000000000000000000000000000000000000000000000081600081518110614344577f4e487b7100000000000000000000000000000000000000000000000000000000600052603260045260246000fd5b60200101907effffffffffffffffffffffffffffffffffffffffffffffffffffffffffffff1916908160001a9053507f7800000000000000000000000000000000000000000000000000000000000000816001815181106143ce577f4e487b7100000000000000000000000000000000000000000000000000000000600052603260045260246000fd5b60200101907effffffffffffffffffffffffffffffffffffffffffffffffffffffffffffff1916908160001a9053506000600184600261440e91906157a1565b6144189190615711565b90505b6001811115614504577f3031323334353637383961626364656600000000000000000000000000000000600f861660108110614480577f4e487b7100000000000000000000000000000000000000000000000000000000600052603260045260246000fd5b1a60f81b8282815181106144bd577f4e487b7100000000000000000000000000000000000000000000000000000000600052603260045260246000fd5b60200101907effffffffffffffffffffffffffffffffffffffffffffffffffffffffffffff1916908160001a905350600485901c9450806144fd906158dd565b905061441b565b5060008414614548576040517f08c379a000000000000000000000000000000000000000000000000000000000815260040161453f90615495565b60405180910390fd5b8091505092915050565b82805461455e90615907565b90600052602060002090601f01602090048101928261458057600085556145c7565b82601f1061459957803560ff19168380011785556145c7565b828001600101855582156145c7579182015b828111156145c65782358255916020019190600101906145ab565b5b5090506145d4919061464d565b5090565b5080546145e490615907565b6000825580601f106145f65750614615565b601f016020900490600052602060002090810190614614919061464d565b5b50565b6040518060a0016040528060001515815260200160001515815260200160008152602001600081526020016000151581525090565b5b8082111561466657600081600090555060010161464e565b5090565b600061467d614678846156b9565b615694565b90508281526020810184848401111561469557600080fd5b6146a084828561589b565b509392505050565b6000813590506146b781615cde565b92915050565b6000815190506146cc81615cde565b92915050565b6000813590506146e181615cf5565b92915050565b6000813590506146f681615d0c565b92915050565b60008135905061470b81615d23565b92915050565b60008135905061472081615d3a565b92915050565b60008083601f84011261473857600080fd5b8235905067ffffffffffffffff81111561475157600080fd5b60208301915083600182028301111561476957600080fd5b9250929050565b600082601f83011261478157600080fd5b813561479184826020860161466a565b91505092915050565b6000813590506147a981615d4a565b92915050565b6000602082840312156147c157600080fd5b60006147cf848285016146a8565b91505092915050565b6000602082840312156147ea57600080fd5b60006147f8848285016146bd565b91505092915050565b60006020828403121561481357600080fd5b6000614821848285016146e7565b91505092915050565b6000806040838503121561483d57600080fd5b600061484b858286016146e7565b925050602061485c858286016146a8565b9150509250929050565b60006020828403121561487857600080fd5b6000614886848285016146fc565b91505092915050565b600080602083850312156148a257600080fd5b600083013567ffffffffffffffff8111156148bc57600080fd5b6148c885828601614726565b92509250509250929050565b6000806000604084860312156148e957600080fd5b600084013567ffffffffffffffff81111561490357600080fd5b61490f86828701614726565b93509350506020614922868287016146a8565b9150509250925092565b60008060008060008060008060e0898b03121561494857600080fd5b600089013567ffffffffffffffff81111561496257600080fd5b61496e8b828c01614726565b985098505060206149818b828c016146a8565b96505060406149928b828c016146d2565b95505060606149a38b828c016146d2565b94505060806149b48b828c0161479a565b93505060a06149c58b828c0161479a565b92505060c06149d68b828c016146d2565b9150509295985092959890939650565b600080600080606085870312156149fc57600080fd5b600085013567ffffffffffffffff811115614a1657600080fd5b614a2287828801614726565b94509450506020614a35878288016146a8565b9250506040614a4687828801614711565b91505092959194509250565b600080600080600060808688031215614a6a57600080fd5b600086013567ffffffffffffffff811115614a8457600080fd5b614a9088828901614726565b95509550506020614aa3888289016146a8565b9350506040614ab488828901614711565b9250506060614ac58882890161479a565b9150509295509295909350565b600080600060408486031215614ae757600080fd5b600084013567ffffffffffffffff811115614b0157600080fd5b614b0d86828701614726565b93509350506020614b2086828701614711565b9150509250925092565b60008060008060408587031215614b4057600080fd5b600085013567ffffffffffffffff811115614b5a57600080fd5b614b6687828801614726565b9450945050602085013567ffffffffffffffff811115614b8557600080fd5b614b9187828801614726565b925092505092959194509250565b60008060008060008060608789031215614bb857600080fd5b600087013567ffffffffffffffff811115614bd257600080fd5b614bde89828a01614726565b9650965050602087013567ffffffffffffffff811115614bfd57600080fd5b614c0989828a01614726565b9450945050604087013567ffffffffffffffff811115614c2857600080fd5b614c3489828a01614726565b92509250509295509295509295565b60008060008060608587031215614c5957600080fd5b600085013567ffffffffffffffff811115614c7357600080fd5b614c7f87828801614726565b94509450506020614c928782880161479a565b9250506040614ca38782880161479a565b91505092959194509250565b600060208284031215614cc157600080fd5b600082013567ffffffffffffffff811115614cdb57600080fd5b614ce784828501614770565b91505092915050565b60008060408385031215614d0357600080fd5b600083013567ffffffffffffffff811115614d1d57600080fd5b614d2985828601614770565b9250506020614d3a858286016146a8565b9150509250929050565b60008060408385031215614d5757600080fd5b600083013567ffffffffffffffff811115614d7157600080fd5b614d7d85828601614770565b9250506020614d8e858286016146e7565b9150509250929050565b614da1816157fb565b82525050565b614db08161580d565b82525050565b614dbf8161580d565b82525050565b614dce81615819565b82525050565b614ddd81615889565b82525050565b6000614def83856156f5565b9350614dfc83858461589b565b614e0583615a40565b840190509392505050565b6000614e1c8385615706565b9350614e2983858461589b565b82840190509392505050565b6000614e40826156ea565b614e4a81856156f5565b9350614e5a8185602086016158aa565b614e6381615a40565b840191505092915050565b6000614e79826156ea565b614e838185615706565b9350614e938185602086016158aa565b80840191505092915050565b6000614eac6020836156f5565b9150614eb782615a51565b602082019050919050565b6000614ecf601b836156f5565b9150614eda82615a7a565b602082019050919050565b6000614ef26016836156f5565b9150614efd82615aa3565b602082019050919050565b6000614f15601c836156f5565b9150614f2082615acc565b602082019050919050565b6000614f386016836156f5565b9150614f4382615af5565b602082019050919050565b6000614f5b6017836156f5565b9150614f6682615b1e565b602082019050919050565b6000614f7e6018836156f5565b9150614f8982615b47565b602082019050919050565b6000614fa16017836156f5565b9150614fac82615b70565b602082019050919050565b6000614fc4601c836156f5565b9150614fcf82615b99565b602082019050919050565b6000614fe76019836156f5565b9150614ff282615bc2565b602082019050919050565b600061500a601783615706565b915061501582615beb565b601782019050919050565b600061502d6018836156f5565b915061503882615c14565b602082019050919050565b6000615050601183615706565b915061505b82615c3d565b601182019050919050565b6000615073602f836156f5565b915061507e82615c66565b604082019050919050565b60006150966017836156f5565b91506150a182615cb5565b602082019050919050565b60a0820160008201516150c26000850182614da7565b5060208201516150d56020850182614da7565b5060408201516150e86040850182615114565b5060608201516150fb6060850182615114565b50608082015161510e6080850182614da7565b50505050565b61511d8161586f565b82525050565b61512c8161586f565b82525050565b61513b81615879565b82525050565b600061514e828486614e10565b91508190509392505050565b60006151668284614e6e565b915081905092915050565b600061517d8286614e6e565b915061518a828486614e10565b9150819050949350505050565b60006151a282614ffd565b91506151ae8285614e6e565b91506151b982615043565b91506151c58284614e6e565b91508190509392505050565b60006020820190506151e66000830184614d98565b92915050565b60006020820190506152016000830184614db6565b92915050565b600060a08201905061521c6000830188614db6565b6152296020830187614db6565b6152366040830186615123565b6152436060830185615123565b6152506080830184614db6565b9695505050505050565b600060208201905061526f6000830184614dc5565b92915050565b60006020820190508181036000830152615290818486614de3565b90509392505050565b600060e08201905081810360008301526152b4818a8c614de3565b90506152c36020830189614d98565b6152d06040830188614db6565b6152dd6060830187614db6565b6152ea6080830186614dd4565b6152f760a0830185614dd4565b61530460c0830184614db6565b9998505050505050505050565b600060e082019050818103600083015261532c818a8c614de3565b905061533b6020830189614d98565b6153486040830188614db6565b6153556060830187614db6565b6153626080830186615123565b61536f60a0830185615123565b61537c60c0830184614db6565b9998505050505050505050565b600060408201905081810360008301526153a4818688614de3565b905081810360208301526153b9818486614de3565b905095945050505050565b600060208201905081810360008301526153de8184614e35565b905092915050565b600060e0820190508181036000830152615400818a614e35565b905061540f6020830189614d98565b61541c6040830188614db6565b6154296060830187614db6565b6154366080830186615123565b61544360a0830185615123565b61545060c0830184614db6565b98975050505050505050565b600060408201905081810360008301526154768186614e35565b9050818103602083015261548b818486614de3565b9050949350505050565b600060208201905081810360008301526154ae81614e9f565b9050919050565b600060208201905081810360008301526154ce81614ec2565b9050919050565b600060208201905081810360008301526154ee81614ee5565b9050919050565b6000602082019050818103600083015261550e81614f08565b9050919050565b6000602082019050818103600083015261552e81614f2b565b9050919050565b6000602082019050818103600083015261554e81614f4e565b9050919050565b6000602082019050818103600083015261556e81614f71565b9050919050565b6000602082019050818103600083015261558e81614f94565b9050919050565b600060208201905081810360008301526155ae81614fb7565b9050919050565b600060208201905081810360008301526155ce81614fda565b9050919050565b600060208201905081810360008301526155ee81615020565b9050919050565b6000602082019050818103600083015261560e81615066565b9050919050565b6000602082019050818103600083015261562e81615089565b9050919050565b600060a08201905061564a60008301846150ac565b92915050565b60006020820190506156656000830184615123565b92915050565b60006040820190506156806000830185615132565b61568d6020830184614d98565b9392505050565b600061569e6156af565b90506156aa8282615939565b919050565b6000604051905090565b600067ffffffffffffffff8211156156d4576156d3615a11565b5b6156dd82615a40565b9050602081019050919050565b600081519050919050565b600082825260208201905092915050565b600081905092915050565b600061571c8261586f565b91506157278361586f565b9250827fffffffffffffffffffffffffffffffffffffffffffffffffffffffffffffffff0382111561575c5761575b6159b3565b5b828201905092915050565b600061577282615879565b915061577d83615879565b92508263ffffffff03821115615796576157956159b3565b5b828201905092915050565b60006157ac8261586f565b91506157b78361586f565b9250817fffffffffffffffffffffffffffffffffffffffffffffffffffffffffffffffff04831182151516156157f0576157ef6159b3565b5b828202905092915050565b60006158068261584f565b9050919050565b60008115159050919050565b6000819050919050565b60007fffffffff0000000000000000000000000000000000000000000000000000000082169050919050565b600073ffffffffffffffffffffffffffffffffffffffff82169050919050565b6000819050919050565b600063ffffffff82169050919050565b60006158948261586f565b9050919050565b82818337600083830152505050565b60005b838110156158c85780820151818401526020810190506158ad565b838111156158d7576000848401525b50505050565b60006158e88261586f565b915060008214156158fc576158fb6159b3565b5b600182039050919050565b6000600282049050600182168061591f57607f821691505b60208210811415615933576159326159e2565b5b50919050565b61594282615a40565b810181811067ffffffffffffffff8211171561596157615960615a11565b5b80604052505050565b60006159758261586f565b91507fffffffffffffffffffffffffffffffffffffffffffffffffffffffffffffffff8214156159a8576159a76159b3565b5b600182019050919050565b7f4e487b7100000000000000000000000000000000000000000000000000000000600052601160045260246000fd5b7f4e487b7100000000000000000000000000000000000000000000000000000000600052602260045260246000fd5b7f4e487b7100000000000000000000000000000000000000000000000000000000600052604160045260246000fd5b6000601f19601f8301169050919050565b7f537472696e67733a20686578206c656e67746820696e73756666696369656e74600082015250565b7f6572726f725f7075626c696343616e4f6e6c79537562735075626c0000000000600082015250565b7f6572726f725f74696d654f6e6c794f6250756253756200000000000000000000600082015250565b7f6572726f725f706174684d757374537461727457697468536c61736800000000600082015250565b7f6572726f725f6e6f456469745065726d697373696f6e00000000000000000000600082015250565b7f6572726f725f6d757374426554727573746564526f6c65000000000000000000600082015250565b7f6572726f725f73747265616d446f65734e6f7445786973740000000000000000600082015250565b7f6572726f725f6e6f53686172655065726d697373696f6e000000000000000000600082015250565b7f6572726f725f6e6f5065726d697373696f6e546f5472616e7366657200000000600082015250565b7f6572726f725f73747265616d416c726561647945786973747300000000000000600082015250565b7f416363657373436f6e74726f6c3a206163636f756e7420000000000000000000600082015250565b7f6572726f725f6e6f44656c6574655065726d697373696f6e0000000000000000600082015250565b7f206973206d697373696e6720726f6c6520000000000000000000000000000000600082015250565b7f416363657373436f6e74726f6c3a2063616e206f6e6c792072656e6f756e636560008201527f20726f6c657320666f722073656c660000000000000000000000000000000000602082015250565b7f6572726f725f6e6f744f776e65724f66454e534e616d65000000000000000000600082015250565b615ce7816157fb565b8114615cf257600080fd5b50565b615cfe8161580d565b8114615d0957600080fd5b50565b615d1581615819565b8114615d2057600080fd5b50565b615d2c81615823565b8114615d3757600080fd5b50565b60058110615d4757600080fd5b50565b615d538161586f565b8114615d5e57600080fd5b5056fea264697066735822122001cf43bdc895a37ac67c0c73a338f096116fd74275913c9087c10a043a7a7e2c64736f6c63430008040033",
  "linkReferences": {},
  "deployedLinkReferences": {}
}