{
    "_format": "hh-sol-artifact-1",
    "contractName": "StreamRegistry",
    "sourceName": "contracts/StreamRegistry/StreamRegistry.sol",
    "abi": [
        {
            "inputs": [
                {
                    "internalType": "address",
                    "name": "ensCacheAddr",
                    "type": "address"
                },
                {
                    "internalType": "address",
                    "name": "migratoraddr",
                    "type": "address"
                },
                {
                    "internalType": "address",
                    "name": "trustedForwarderAddress",
                    "type": "address"
                }
            ],
            "stateMutability": "nonpayable",
            "type": "constructor"
        },
        {
            "anonymous": false,
            "inputs": [
                {
                    "indexed": false,
                    "internalType": "string",
                    "name": "streamId",
                    "type": "string"
                },
                {
                    "indexed": false,
                    "internalType": "address",
                    "name": "user",
                    "type": "address"
                },
                {
                    "indexed": false,
                    "internalType": "bool",
                    "name": "edit",
                    "type": "bool"
                },
                {
                    "indexed": false,
                    "internalType": "bool",
                    "name": "canDelete",
                    "type": "bool"
                },
                {
                    "indexed": false,
                    "internalType": "bool",
                    "name": "publish",
                    "type": "bool"
                },
                {
                    "indexed": false,
                    "internalType": "bool",
                    "name": "subscribed",
                    "type": "bool"
                },
                {
                    "indexed": false,
                    "internalType": "bool",
                    "name": "share",
                    "type": "bool"
                }
            ],
            "name": "PermissionUpdated",
            "type": "event"
        },
        {
            "anonymous": false,
            "inputs": [
                {
                    "indexed": false,
                    "internalType": "string",
                    "name": "id",
                    "type": "string"
                },
                {
                    "indexed": false,
                    "internalType": "string",
                    "name": "metadata",
                    "type": "string"
                }
            ],
            "name": "StreamCreated",
            "type": "event"
        },
        {
            "anonymous": false,
            "inputs": [
                {
                    "indexed": false,
                    "internalType": "string",
                    "name": "id",
                    "type": "string"
                }
            ],
            "name": "StreamDeleted",
            "type": "event"
        },
        {
            "anonymous": false,
            "inputs": [
                {
                    "indexed": false,
                    "internalType": "string",
                    "name": "id",
                    "type": "string"
                },
                {
                    "indexed": false,
                    "internalType": "string",
                    "name": "metadata",
                    "type": "string"
                }
            ],
            "name": "StreamUpdated",
            "type": "event"
        },
        {
            "inputs": [
                {
                    "internalType": "address",
                    "name": "_address",
                    "type": "address"
                }
            ],
            "name": "addressToString",
            "outputs": [
                {
                    "internalType": "string",
                    "name": "",
                    "type": "string"
                }
            ],
            "stateMutability": "pure",
            "type": "function"
        },
        {
            "inputs": [
                {
                    "internalType": "string",
                    "name": "streamIdPath",
                    "type": "string"
                },
                {
                    "internalType": "string",
                    "name": "metadataJsonString",
                    "type": "string"
                }
            ],
            "name": "createStream",
            "outputs": [],
            "stateMutability": "nonpayable",
            "type": "function"
        },
        {
            "inputs": [
                {
                    "internalType": "string",
                    "name": "ensName",
                    "type": "string"
                },
                {
                    "internalType": "string",
                    "name": "streamIdPath",
                    "type": "string"
                },
                {
                    "internalType": "string",
                    "name": "metadataJsonString",
                    "type": "string"
                }
            ],
            "name": "createStreamWithENS",
            "outputs": [],
            "stateMutability": "nonpayable",
            "type": "function"
        },
        {
            "inputs": [
                {
                    "internalType": "string",
                    "name": "streamId",
                    "type": "string"
                }
            ],
            "name": "deleteStream",
            "outputs": [],
            "stateMutability": "nonpayable",
            "type": "function"
        },
        {
            "inputs": [
                {
                    "internalType": "string",
                    "name": "streamId",
                    "type": "string"
                },
                {
                    "internalType": "address",
                    "name": "user",
                    "type": "address"
                }
            ],
            "name": "getAddressKey",
            "outputs": [
                {
                    "internalType": "bytes32",
                    "name": "",
                    "type": "bytes32"
                }
            ],
            "stateMutability": "view",
            "type": "function"
        },
        {
            "inputs": [
                {
                    "internalType": "string",
                    "name": "streamId",
                    "type": "string"
                },
                {
                    "internalType": "address",
                    "name": "user",
                    "type": "address"
                }
            ],
            "name": "getDirectPermissionsForUser",
            "outputs": [
                {
                    "components": [
                        {
                            "internalType": "bool",
                            "name": "edit",
                            "type": "bool"
                        },
                        {
                            "internalType": "bool",
                            "name": "canDelete",
                            "type": "bool"
                        },
                        {
                            "internalType": "bool",
                            "name": "publish",
                            "type": "bool"
                        },
                        {
                            "internalType": "bool",
                            "name": "subscribed",
                            "type": "bool"
                        },
                        {
                            "internalType": "bool",
                            "name": "share",
                            "type": "bool"
                        }
                    ],
                    "internalType": "struct StreamRegistry.Permission",
                    "name": "permission",
                    "type": "tuple"
                }
            ],
            "stateMutability": "view",
            "type": "function"
        },
        {
            "inputs": [
                {
                    "internalType": "string",
                    "name": "streamId",
                    "type": "string"
                },
                {
                    "internalType": "address",
                    "name": "user",
                    "type": "address"
                }
            ],
            "name": "getPermissionsForUser",
            "outputs": [
                {
                    "components": [
                        {
                            "internalType": "bool",
                            "name": "edit",
                            "type": "bool"
                        },
                        {
                            "internalType": "bool",
                            "name": "canDelete",
                            "type": "bool"
                        },
                        {
                            "internalType": "bool",
                            "name": "publish",
                            "type": "bool"
                        },
                        {
                            "internalType": "bool",
                            "name": "subscribed",
                            "type": "bool"
                        },
                        {
                            "internalType": "bool",
                            "name": "share",
                            "type": "bool"
                        }
                    ],
                    "internalType": "struct StreamRegistry.Permission",
                    "name": "permission",
                    "type": "tuple"
                }
            ],
            "stateMutability": "view",
            "type": "function"
        },
        {
            "inputs": [
                {
                    "internalType": "string",
                    "name": "streamId",
                    "type": "string"
                }
            ],
            "name": "getStreamMetadata",
            "outputs": [
                {
                    "internalType": "string",
                    "name": "des",
                    "type": "string"
                }
            ],
            "stateMutability": "view",
            "type": "function"
        },
        {
            "inputs": [
                {
                    "internalType": "string",
                    "name": "streamId",
                    "type": "string"
                },
                {
                    "internalType": "address",
                    "name": "user",
                    "type": "address"
                },
                {
                    "internalType": "enum StreamRegistry.PermissionType",
                    "name": "permissionType",
                    "type": "uint8"
                }
            ],
            "name": "grantPermission",
            "outputs": [],
            "stateMutability": "nonpayable",
            "type": "function"
        },
        {
            "inputs": [
                {
                    "internalType": "string",
                    "name": "streamId",
                    "type": "string"
                },
                {
                    "internalType": "enum StreamRegistry.PermissionType",
                    "name": "permissionType",
                    "type": "uint8"
                }
            ],
            "name": "grantPublicPermission",
            "outputs": [],
            "stateMutability": "nonpayable",
            "type": "function"
        },
        {
            "inputs": [
                {
                    "internalType": "string",
                    "name": "streamId",
                    "type": "string"
                },
                {
                    "internalType": "address",
                    "name": "user",
                    "type": "address"
                },
                {
                    "internalType": "enum StreamRegistry.PermissionType",
                    "name": "permissionType",
                    "type": "uint8"
                }
            ],
            "name": "hasDirectPermission",
            "outputs": [
                {
                    "internalType": "bool",
                    "name": "userHasPermission",
                    "type": "bool"
                }
            ],
            "stateMutability": "view",
            "type": "function"
        },
        {
            "inputs": [
                {
                    "internalType": "string",
                    "name": "streamId",
                    "type": "string"
                },
                {
                    "internalType": "address",
                    "name": "user",
                    "type": "address"
                },
                {
                    "internalType": "enum StreamRegistry.PermissionType",
                    "name": "permissionType",
                    "type": "uint8"
                }
            ],
            "name": "hasPermission",
            "outputs": [
                {
                    "internalType": "bool",
                    "name": "userHasPermission",
                    "type": "bool"
                }
            ],
            "stateMutability": "view",
            "type": "function"
        },
        {
            "inputs": [
                {
                    "internalType": "address",
                    "name": "forwarder",
                    "type": "address"
                }
            ],
            "name": "isTrustedForwarder",
            "outputs": [
                {
                    "internalType": "bool",
                    "name": "",
                    "type": "bool"
                }
            ],
            "stateMutability": "view",
            "type": "function"
        },
        {
            "inputs": [],
            "name": "migrationActive",
            "outputs": [
                {
                    "internalType": "bool",
                    "name": "",
                    "type": "bool"
                }
            ],
            "stateMutability": "view",
            "type": "function"
        },
        {
            "inputs": [],
            "name": "migrator",
            "outputs": [
                {
                    "internalType": "address",
                    "name": "",
                    "type": "address"
                }
            ],
            "stateMutability": "view",
            "type": "function"
        },
        {
            "inputs": [
                {
                    "internalType": "string",
                    "name": "streamId",
                    "type": "string"
                },
                {
                    "internalType": "address",
                    "name": "user",
                    "type": "address"
                },
                {
                    "internalType": "bool",
                    "name": "edit",
                    "type": "bool"
                },
                {
                    "internalType": "bool",
                    "name": "deletePerm",
                    "type": "bool"
                },
                {
                    "internalType": "bool",
                    "name": "publish",
                    "type": "bool"
                },
                {
                    "internalType": "bool",
                    "name": "subscribe",
                    "type": "bool"
                },
                {
                    "internalType": "bool",
                    "name": "share",
                    "type": "bool"
                }
            ],
            "name": "migratorSetPermissionsForUser",
            "outputs": [],
            "stateMutability": "nonpayable",
            "type": "function"
        },
        {
            "inputs": [
                {
                    "internalType": "string",
                    "name": "streamId",
                    "type": "string"
                },
                {
                    "internalType": "string",
                    "name": "metadata",
                    "type": "string"
                }
            ],
            "name": "migratorSetStream",
            "outputs": [],
            "stateMutability": "nonpayable",
            "type": "function"
        },
        {
            "inputs": [
                {
                    "internalType": "string",
                    "name": "streamId",
                    "type": "string"
                },
                {
                    "internalType": "address",
                    "name": "user",
                    "type": "address"
                }
            ],
            "name": "revokeAllPermissionsForUser",
            "outputs": [],
            "stateMutability": "nonpayable",
            "type": "function"
        },
        {
            "inputs": [
                {
                    "internalType": "string",
                    "name": "streamId",
                    "type": "string"
                },
                {
                    "internalType": "address",
                    "name": "user",
                    "type": "address"
                },
                {
                    "internalType": "enum StreamRegistry.PermissionType",
                    "name": "permissionType",
                    "type": "uint8"
                }
            ],
            "name": "revokePermission",
            "outputs": [],
            "stateMutability": "nonpayable",
            "type": "function"
        },
        {
            "inputs": [
                {
                    "internalType": "string",
                    "name": "streamId",
                    "type": "string"
                },
                {
                    "internalType": "enum StreamRegistry.PermissionType",
                    "name": "permissionType",
                    "type": "uint8"
                }
            ],
            "name": "revokePublicPermission",
            "outputs": [],
            "stateMutability": "nonpayable",
            "type": "function"
        },
        {
            "inputs": [],
            "name": "setMigrationComplete",
            "outputs": [],
            "stateMutability": "nonpayable",
            "type": "function"
        },
        {
            "inputs": [
                {
                    "internalType": "string",
                    "name": "streamId",
                    "type": "string"
                },
                {
                    "internalType": "address",
                    "name": "user",
                    "type": "address"
                },
                {
                    "internalType": "bool",
                    "name": "edit",
                    "type": "bool"
                },
                {
                    "internalType": "bool",
                    "name": "deletePerm",
                    "type": "bool"
                },
                {
                    "internalType": "bool",
                    "name": "publish",
                    "type": "bool"
                },
                {
                    "internalType": "bool",
                    "name": "subscribe",
                    "type": "bool"
                },
                {
                    "internalType": "bool",
                    "name": "share",
                    "type": "bool"
                }
            ],
            "name": "setPermissionsForUser",
            "outputs": [],
            "stateMutability": "nonpayable",
            "type": "function"
        },
        {
            "inputs": [
                {
                    "internalType": "string",
                    "name": "streamId",
                    "type": "string"
                },
                {
                    "internalType": "bool",
                    "name": "publish",
                    "type": "bool"
                },
                {
                    "internalType": "bool",
                    "name": "subscribe",
                    "type": "bool"
                }
            ],
            "name": "setPublicPermission",
            "outputs": [],
            "stateMutability": "nonpayable",
            "type": "function"
        },
        {
            "inputs": [
                {
                    "internalType": "string",
                    "name": "",
                    "type": "string"
                }
            ],
            "name": "streamIdToMetadata",
            "outputs": [
                {
                    "internalType": "string",
                    "name": "",
                    "type": "string"
                }
            ],
            "stateMutability": "view",
            "type": "function"
        },
        {
            "inputs": [
                {
                    "internalType": "string",
                    "name": "",
                    "type": "string"
                },
                {
                    "internalType": "bytes32",
                    "name": "",
                    "type": "bytes32"
                }
            ],
            "name": "streamIdToPermissions",
            "outputs": [
                {
                    "internalType": "bool",
                    "name": "edit",
                    "type": "bool"
                },
                {
                    "internalType": "bool",
                    "name": "canDelete",
                    "type": "bool"
                },
                {
                    "internalType": "bool",
                    "name": "publish",
                    "type": "bool"
                },
                {
                    "internalType": "bool",
                    "name": "subscribed",
                    "type": "bool"
                },
                {
                    "internalType": "bool",
                    "name": "share",
                    "type": "bool"
                }
            ],
            "stateMutability": "view",
            "type": "function"
        },
        {
            "inputs": [
                {
                    "internalType": "string",
                    "name": "streamId",
                    "type": "string"
                },
                {
                    "internalType": "address",
                    "name": "recipient",
                    "type": "address"
                }
            ],
            "name": "transferAllPermissionsToUser",
            "outputs": [],
            "stateMutability": "nonpayable",
            "type": "function"
        },
        {
            "inputs": [
                {
                    "internalType": "string",
                    "name": "streamId",
                    "type": "string"
                },
                {
                    "internalType": "address",
                    "name": "recipient",
                    "type": "address"
                },
                {
                    "internalType": "enum StreamRegistry.PermissionType",
                    "name": "permissionType",
                    "type": "uint8"
                }
            ],
            "name": "transferPermissionToUser",
            "outputs": [],
            "stateMutability": "nonpayable",
            "type": "function"
        },
        {
            "inputs": [
                {
                    "internalType": "string",
                    "name": "streamId",
                    "type": "string"
                },
                {
                    "internalType": "string",
                    "name": "metadata",
                    "type": "string"
                }
            ],
            "name": "updateStreamMetadata",
            "outputs": [],
            "stateMutability": "nonpayable",
            "type": "function"
        }
    ],
    "bytecode": "0x608060405260018060146101000a81548160ff0219169083151502179055503480156200002b57600080fd5b5060405162004f8e38038062004f8e833981810160405281019062000051919062000135565b80806000806101000a81548173ffffffffffffffffffffffffffffffffffffffff021916908373ffffffffffffffffffffffffffffffffffffffff1602179055505082600560006101000a81548173ffffffffffffffffffffffffffffffffffffffff021916908373ffffffffffffffffffffffffffffffffffffffff16021790555081600160006101000a81548173ffffffffffffffffffffffffffffffffffffffff021916908373ffffffffffffffffffffffffffffffffffffffff160217905550505050620001d9565b6000815190506200012f81620001bf565b92915050565b6000806000606084860312156200014b57600080fd5b60006200015b868287016200011e565b93505060206200016e868287016200011e565b925050604062000181868287016200011e565b9150509250925092565b600062000198826200019f565b9050919050565b600073ffffffffffffffffffffffffffffffffffffffff82169050919050565b620001ca816200018b565b8114620001d657600080fd5b50565b614da580620001e96000396000f3fe608060405234801561001057600080fd5b50600436106101c45760003560e01c806378800c76116100f9578063997e8aaa11610097578063d4892dbc11610071578063d4892dbc146104e7578063e8f3828e14610503578063f36d484914610533578063f7f5078c14610567576101c4565b8063997e8aaa1461047f578063a020aa971461049b578063d3bcfc2a146104cb576101c4565b806388b21038116100d357806388b210381461040b5780638a043af81461043b5780638d394972146104575780638ed6b01614610461576101c4565b806378800c76146103a15780637cd07e47146103bd57806386902fe9146103db576101c4565b80634dc51afb116101665780635e57966d116101405780635e57966d146103095780636394fbd2146103395780636453cbd7146103695780636beff96d14610385576101c4565b80634dc51afb146102a157806350b5422b146102bd578063572b6c05146102d9576101c4565b8063272cc993116101a2578063272cc993146102315780633e397aea1461024d57806342617fe714610269578063466f878e14610285576101c4565b80630843564a146101c95780630ef8cdc7146101f95780631b35089114610215575b600080fd5b6101e360048036038101906101de9190614024565b610597565b6040516101f0919061449b565b60405180910390f35b610213600480360381019061020e9190613eca565b6105f8565b005b61022f600480360381019061022a9190613ce0565b610620565b005b61024b60048036038101906102469190613e72565b610720565b005b61026760048036038101906102629190613d9a565b61080b565b005b610283600480360381019061027e9190613eca565b6108f8565b005b61029f600480360381019061029a9190613e72565b610ab8565b005b6102bb60048036038101906102b69190613e06565b610ba3565b005b6102d760048036038101906102d29190613c88565b610c95565b005b6102f360048036038101906102ee9190613bf1565b610ea0565b604051610300919061442d565b60405180910390f35b610323600480360381019061031e9190613bf1565b610ef9565b604051610330919061458d565b60405180910390f35b610353600480360381019061034e9190613c43565b61135a565b604051610360919061458d565b60405180910390f35b610383600480360381019061037e9190613c43565b611481565b005b61039f600480360381019061039a9190613c88565b611637565b005b6103bb60048036038101906103b69190613f3f565b61195b565b005b6103c5611ad5565b6040516103d29190614412565b60405180910390f35b6103f560048036038101906103f09190613fe3565b611afb565b604051610402919061458d565b60405180910390f35b61042560048036038101906104209190613d9a565b611bb1565b604051610432919061442d565b60405180910390f35b61045560048036038101906104509190613d9a565b611bdd565b005b61045f611c58565b005b610469611d5b565b604051610476919061442d565b60405180910390f35b61049960048036038101906104949190613d9a565b611d6e565b005b6104b560048036038101906104b09190613c88565b611e5b565b6040516104c291906147be565b60405180910390f35b6104e560048036038101906104e09190613eca565b611ff0565b005b61050160048036038101906104fc9190613ce0565b612149565b005b61051d60048036038101906105189190613c88565b61223c565b60405161052a91906147be565b60405180910390f35b61054d60048036038101906105489190614078565b612527565b60405161055e959493929190614448565b60405180910390f35b610581600480360381019061057c9190613d9a565b6125c1565b60405161058e919061442d565b60405180910390f35b60006002836040516105a991906143d5565b908152602001604051809103902060009054906101000a900463ffffffff16826040516020016105da9291906147d9565b60405160208183030381529060405280519060200120905092915050565b600061060a610605612b15565b610ef9565b90506106198186868686612b47565b5050505050565b600160009054906101000a900473ffffffffffffffffffffffffffffffffffffffff1673ffffffffffffffffffffffffffffffffffffffff16610661612b15565b73ffffffffffffffffffffffffffffffffffffffff16146106b7576040517f08c379a00000000000000000000000000000000000000000000000000000000081526004016106ae906146be565b60405180910390fd5b600160149054906101000a900460ff16610706576040517f08c379a00000000000000000000000000000000000000000000000000000000081526004016106fd9061473e565b60405180910390fd5b6107168888888888888888612f3b565b5050505050505050565b8282600482826040516107349291906143bc565b9081526020016040518091039020600061079984848080601f016020809104026020016040519081016040528093929190818152602001838380828437600081840152601f19601f82011690508083019250505050505050610794612b15565b610597565b815260200190815260200160002060000160049054906101000a900460ff166107f7576040517f08c379a00000000000000000000000000000000000000000000000000000000081526004016107ee9061475e565b60405180910390fd5b610804858560008661080b565b5050505050565b83836004828260405161081f9291906143bc565b9081526020016040518091039020600061088484848080601f016020809104026020016040519081016040528093929190818152602001838380828437600081840152601f19601f8201169050808301925050505050505061087f612b15565b610597565b815260200190815260200160002060000160049054906101000a900460ff166108e2576040517f08c379a00000000000000000000000000000000000000000000000000000000081526004016108d99061475e565b60405180910390fd5b6108f0868686866000613165565b505050505050565b838360006003838360405161090e9291906143bc565b9081526020016040518091039020805461092790614a0d565b9050141561096a576040517f08c379a0000000000000000000000000000000000000000000000000000000008152600401610961906146de565b60405180910390fd5b85856004828260405161097e9291906143bc565b908152602001604051809103902060006109e384848080601f016020809104026020016040519081016040528093929190818152602001838380828437600081840152601f19601f820116905080830192505050505050506109de612b15565b610597565b815260200190815260200160002060000160009054906101000a900460ff16610a41576040517f08c379a0000000000000000000000000000000000000000000000000000000008152600401610a389061469e565b60405180910390fd5b858560038a8a604051610a559291906143bc565b90815260200160405180910390209190610a709291906139ba565b507fa60b7935888a7ab31214282090f1ab7207ab6d7abbf3c11080b75ce91d9a36d088888888604051610aa69493929190614552565b60405180910390a15050505050505050565b828260048282604051610acc9291906143bc565b90815260200160405180910390206000610b3184848080601f016020809104026020016040519081016040528093929190818152602001838380828437600081840152601f19601f82011690508083019250505050505050610b2c612b15565b610597565b815260200190815260200160002060000160049054906101000a900460ff16610b8f576040517f08c379a0000000000000000000000000000000000000000000000000000000008152600401610b869061475e565b60405180910390fd5b610b9c8585600086611d6e565b5050505050565b838360048282604051610bb79291906143bc565b90815260200160405180910390206000610c1c84848080601f016020809104026020016040519081016040528093929190818152602001838380828437600081840152601f19601f82011690508083019250505050505050610c17612b15565b610597565b815260200190815260200160002060000160049054906101000a900460ff16610c7a576040517f08c379a0000000000000000000000000000000000000000000000000000000008152600401610c719061475e565b60405180910390fd5b610c8d8686600080600089896000612149565b505050505050565b828260048282604051610ca99291906143bc565b90815260200160405180910390206000610d0e84848080601f016020809104026020016040519081016040528093929190818152602001838380828437600081840152601f19601f82011690508083019250505050505050610d09612b15565b610597565b815260200190815260200160002060000160049054906101000a900460ff16610d6c576040517f08c379a0000000000000000000000000000000000000000000000000000000008152600401610d639061475e565b60405180910390fd5b60048585604051610d7e9291906143bc565b90815260200160405180910390206000610ddc87878080601f016020809104026020016040519081016040528093929190818152602001838380828437600081840152601f19601f8201169050808301925050505050505086610597565b8152602001908152602001600020600080820160006101000a81549060ff02191690556000820160016101000a81549060ff02191690556000820160026101000a81549060ff02191690556000820160036101000a81549060ff02191690556000820160046101000a81549060ff021916905550507f22e28c30c57984f353ee8f992671b9dbc19ac7481ed115987fd1050a5b229f388585856000806000806000604051610e919897969594939291906144da565b60405180910390a15050505050565b60008060009054906101000a900473ffffffffffffffffffffffffffffffffffffffff1673ffffffffffffffffffffffffffffffffffffffff168273ffffffffffffffffffffffffffffffffffffffff16149050919050565b606060008273ffffffffffffffffffffffffffffffffffffffff1660001b905060006040518060400160405280601081526020017f303132333435363738396162636465660000000000000000000000000000000081525090506000602a67ffffffffffffffff811115610f96577f4e487b7100000000000000000000000000000000000000000000000000000000600052604160045260246000fd5b6040519080825280601f01601f191660200182016040528015610fc85781602001600182028036833780820191505090505b5090507f300000000000000000000000000000000000000000000000000000000000000081600081518110611026577f4e487b7100000000000000000000000000000000000000000000000000000000600052603260045260246000fd5b60200101907effffffffffffffffffffffffffffffffffffffffffffffffffffffffffffff1916908160001a9053507f7800000000000000000000000000000000000000000000000000000000000000816001815181106110b0577f4e487b7100000000000000000000000000000000000000000000000000000000600052603260045260246000fd5b60200101907effffffffffffffffffffffffffffffffffffffffffffffffffffffffffffff1916908160001a90535060005b601481101561134e5782600485600c846110fc919061487f565b60208110611133577f4e487b7100000000000000000000000000000000000000000000000000000000600052603260045260246000fd5b1a60f81b7effffffffffffffffffffffffffffffffffffffffffffffffffffffffffffff1916901c60f81c60ff1681518110611198577f4e487b7100000000000000000000000000000000000000000000000000000000600052603260045260246000fd5b602001015160f81c60f81b826002836111b1919061490f565b60026111bd919061487f565b815181106111f4577f4e487b7100000000000000000000000000000000000000000000000000000000600052603260045260246000fd5b60200101907effffffffffffffffffffffffffffffffffffffffffffffffffffffffffffff1916908160001a90535082600f60f81b85600c84611237919061487f565b6020811061126e577f4e487b7100000000000000000000000000000000000000000000000000000000600052603260045260246000fd5b1a60f81b1660f81c60ff16815181106112b0577f4e487b7100000000000000000000000000000000000000000000000000000000600052603260045260246000fd5b602001015160f81c60f81b826002836112c9919061490f565b60036112d5919061487f565b8151811061130c577f4e487b7100000000000000000000000000000000000000000000000000000000600052603260045260246000fd5b60200101907effffffffffffffffffffffffffffffffffffffffffffffffffffffffffffff1916908160001a905350808061134690614a70565b9150506110e2565b50809350505050919050565b606082826000600383836040516113729291906143bc565b9081526020016040518091039020805461138b90614a0d565b905014156113ce576040517f08c379a00000000000000000000000000000000000000000000000000000000081526004016113c5906146de565b60405180910390fd5b600385856040516113e09291906143bc565b908152602001604051809103902080546113f990614a0d565b80601f016020809104026020016040519081016040528092919081815260200182805461142590614a0d565b80156114725780601f1061144757610100808354040283529160200191611472565b820191906000526020600020905b81548152906001019060200180831161145557829003601f168201915b50505050509250505092915050565b81816000600383836040516114979291906143bc565b908152602001604051809103902080546114b090614a0d565b905014156114f3576040517f08c379a00000000000000000000000000000000000000000000000000000000081526004016114ea906146de565b60405180910390fd5b8383600482826040516115079291906143bc565b9081526020016040518091039020600061156c84848080601f016020809104026020016040519081016040528093929190818152602001838380828437600081840152601f19601f82011690508083019250505050505050611567612b15565b610597565b815260200190815260200160002060000160019054906101000a900460ff166115ca576040517f08c379a00000000000000000000000000000000000000000000000000000000081526004016115c19061477e565b60405180910390fd5b600386866040516115dc9291906143bc565b908152602001604051809103902060006115f69190613a40565b7f74b7395f46349d84fba706c4d226c68bbf9206c2567ae3ec2a001b5a98128eae86866040516116279291906144b6565b60405180910390a1505050505050565b60006004848460405161164b9291906143bc565b908152602001604051809103902060006116b086868080601f016020809104026020016040519081016040528093929190818152602001838380828437600081840152601f19601f820116905080830192505050505050506116ab612b15565b610597565b81526020019081526020016000206040518060a00160405290816000820160009054906101000a900460ff161515151581526020016000820160019054906101000a900460ff161515151581526020016000820160029054906101000a900460ff161515151581526020016000820160039054906101000a900460ff161515151581526020016000820160049054906101000a900460ff1615151515815250509050806000015180611763575080602001515b8061176f575080604001515b8061177b575080606001515b80611787575080608001515b6117c6576040517f08c379a00000000000000000000000000000000000000000000000000000000081526004016117bd906146fe565b60405180910390fd5b6000600485856040516117da9291906143bc565b9081526020016040518091039020600061183887878080601f016020809104026020016040519081016040528093929190818152602001838380828437600081840152601f19601f8201169050808301925050505050505086610597565b81526020019081526020016000206040518060a00160405290816000820160009054906101000a900460ff161515151581526020016000820160019054906101000a900460ff161515151581526020016000820160029054906101000a900460ff161515151581526020016000820160039054906101000a900460ff161515151581526020016000820160049054906101000a900460ff161515151581525050905061193a8585858560000151806118f1575084600001515b866020015180611902575085602001515b876040015180611913575086604001515b886060015180611924575087606001515b896080015180611935575088608001515b612f3b565b6119548585611947612b15565b6000806000806000612f3b565b5050505050565b611963612b15565b73ffffffffffffffffffffffffffffffffffffffff16600560009054906101000a900473ffffffffffffffffffffffffffffffffffffffff1673ffffffffffffffffffffffffffffffffffffffff16632b1fd99588886040518363ffffffff1660e01b81526004016119d69291906144b6565b60206040518083038186803b1580156119ee57600080fd5b505afa158015611a02573d6000803e3d6000fd5b505050506040513d601f19601f82011682018060405250810190611a269190613c1a565b73ffffffffffffffffffffffffffffffffffffffff1614611a7c576040517f08c379a0000000000000000000000000000000000000000000000000000000008152600401611a739061479e565b60405180910390fd5b611acd86868080601f016020809104026020016040519081016040528093929190818152602001838380828437600081840152601f19601f8201169050808301925050505050505085858585612b47565b505050505050565b600160009054906101000a900473ffffffffffffffffffffffffffffffffffffffff1681565b6003818051602081018201805184825260208301602085012081835280955050505050506000915090508054611b3090614a0d565b80601f0160208091040260200160405190810160405280929190818152602001828054611b5c90614a0d565b8015611ba95780601f10611b7e57610100808354040283529160200191611ba9565b820191906000526020600020905b815481529060010190602001808311611b8c57829003601f168201915b505050505081565b6000611bbf858585856125c1565b80611bd35750611bd285856000856125c1565b5b9050949350505050565b611bf08484611bea612b15565b846125c1565b611c2f576040517f08c379a0000000000000000000000000000000000000000000000000000000008152600401611c26906146fe565b60405180910390fd5b611c448484611c3c612b15565b846000613165565b611c52848484846001613165565b50505050565b600160009054906101000a900473ffffffffffffffffffffffffffffffffffffffff1673ffffffffffffffffffffffffffffffffffffffff16611c99612b15565b73ffffffffffffffffffffffffffffffffffffffff1614611cef576040517f08c379a0000000000000000000000000000000000000000000000000000000008152600401611ce6906146be565b60405180910390fd5b600160149054906101000a900460ff16611d3e576040517f08c379a0000000000000000000000000000000000000000000000000000000008152600401611d359061473e565b60405180910390fd5b6000600160146101000a81548160ff021916908315150217905550565b600160149054906101000a900460ff1681565b838360048282604051611d829291906143bc565b90815260200160405180910390206000611de784848080601f016020809104026020016040519081016040528093929190818152602001838380828437600081840152601f19601f82011690508083019250505050505050611de2612b15565b610597565b815260200190815260200160002060000160049054906101000a900460ff16611e45576040517f08c379a0000000000000000000000000000000000000000000000000000000008152600401611e3c9061475e565b60405180910390fd5b611e53868686866001613165565b505050505050565b611e63613a80565b8383600060038383604051611e799291906143bc565b90815260200160405180910390208054611e9290614a0d565b90501415611ed5576040517f08c379a0000000000000000000000000000000000000000000000000000000008152600401611ecc906146de565b60405180910390fd5b60048686604051611ee79291906143bc565b90815260200160405180910390206000611f4588888080601f016020809104026020016040519081016040528093929190818152602001838380828437600081840152601f19601f8201169050808301925050505050505087610597565b81526020019081526020016000206040518060a00160405290816000820160009054906101000a900460ff161515151581526020016000820160019054906101000a900460ff161515151581526020016000820160029054906101000a900460ff161515151581526020016000820160039054906101000a900460ff161515151581526020016000820160049054906101000a900460ff161515151581525050925050509392505050565b600160009054906101000a900473ffffffffffffffffffffffffffffffffffffffff1673ffffffffffffffffffffffffffffffffffffffff16612031612b15565b73ffffffffffffffffffffffffffffffffffffffff1614612087576040517f08c379a000000000000000000000000000000000000000000000000000000000815260040161207e906146be565b60405180910390fd5b600160149054906101000a900460ff166120d6576040517f08c379a00000000000000000000000000000000000000000000000000000000081526004016120cd9061473e565b60405180910390fd5b8181600386866040516120ea9291906143bc565b908152602001604051809103902091906121059291906139ba565b507fa60b7935888a7ab31214282090f1ab7207ab6d7abbf3c11080b75ce91d9a36d08484848460405161213b9493929190614552565b60405180910390a150505050565b87876004828260405161215d9291906143bc565b908152602001604051809103902060006121c284848080601f016020809104026020016040519081016040528093929190818152602001838380828437600081840152601f19601f820116905080830192505050505050506121bd612b15565b610597565b815260200190815260200160002060000160049054906101000a900460ff16612220576040517f08c379a00000000000000000000000000000000000000000000000000000000081526004016122179061475e565b60405180910390fd5b6122308a8a8a8a8a8a8a8a612f3b565b50505050505050505050565b612244613a80565b838360006003838360405161225a9291906143bc565b9081526020016040518091039020805461227390614a0d565b905014156122b6576040517f08c379a00000000000000000000000000000000000000000000000000000000081526004016122ad906146de565b60405180910390fd5b600486866040516122c89291906143bc565b9081526020016040518091039020600061232688888080601f016020809104026020016040519081016040528093929190818152602001838380828437600081840152601f19601f8201169050808301925050505050505087610597565b81526020019081526020016000206040518060a00160405290816000820160009054906101000a900460ff161515151581526020016000820160019054906101000a900460ff161515151581526020016000820160029054906101000a900460ff161515151581526020016000820160039054906101000a900460ff161515151581526020016000820160049054906101000a900460ff16151515158152505092506000600487876040516123dc9291906143bc565b9081526020016040518091039020600061243b89898080601f016020809104026020016040519081016040528093929190818152602001838380828437600081840152601f19601f820116905080830192505050505050506000610597565b81526020019081526020016000206040518060a00160405290816000820160009054906101000a900460ff161515151581526020016000820160019054906101000a900460ff161515151581526020016000820160029054906101000a900460ff161515151581526020016000820160039054906101000a900460ff161515151581526020016000820160049054906101000a900460ff16151515158152505090508360400151806124ee575080604001515b84604001901515908115158152505083606001518061250e575080606001515b8460600190151590811515815250505050509392505050565b600482805160208101820180518482526020830160208501208183528095505050505050602052806000526040600020600091509150508060000160009054906101000a900460ff16908060000160019054906101000a900460ff16908060000160029054906101000a900460ff16908060000160039054906101000a900460ff16908060000160049054906101000a900460ff16905085565b60008060048111156125fc577f4e487b7100000000000000000000000000000000000000000000000000000000600052602160045260246000fd5b826004811115612635577f4e487b7100000000000000000000000000000000000000000000000000000000600052602160045260246000fd5b14156126d1576004858560405161264d9291906143bc565b908152602001604051809103902060006126ab87878080601f016020809104026020016040519081016040528093929190818152602001838380828437600081840152601f19601f8201169050808301925050505050505086610597565b815260200190815260200160002060000160009054906101000a900460ff169050612b0d565b6001600481111561270b577f4e487b7100000000000000000000000000000000000000000000000000000000600052602160045260246000fd5b826004811115612744577f4e487b7100000000000000000000000000000000000000000000000000000000600052602160045260246000fd5b14156127e0576004858560405161275c9291906143bc565b908152602001604051809103902060006127ba87878080601f016020809104026020016040519081016040528093929190818152602001838380828437600081840152601f19601f8201169050808301925050505050505086610597565b815260200190815260200160002060000160019054906101000a900460ff169050612b0d565b6003600481111561281a577f4e487b7100000000000000000000000000000000000000000000000000000000600052602160045260246000fd5b826004811115612853577f4e487b7100000000000000000000000000000000000000000000000000000000600052602160045260246000fd5b14156128ef576004858560405161286b9291906143bc565b908152602001604051809103902060006128c987878080601f016020809104026020016040519081016040528093929190818152602001838380828437600081840152601f19601f8201169050808301925050505050505086610597565b815260200190815260200160002060000160039054906101000a900460ff169050612b0d565b60026004811115612929577f4e487b7100000000000000000000000000000000000000000000000000000000600052602160045260246000fd5b826004811115612962577f4e487b7100000000000000000000000000000000000000000000000000000000600052602160045260246000fd5b14156129fe576004858560405161297a9291906143bc565b908152602001604051809103902060006129d887878080601f016020809104026020016040519081016040528093929190818152602001838380828437600081840152601f19601f8201169050808301925050505050505086610597565b815260200190815260200160002060000160029054906101000a900460ff169050612b0d565b600480811115612a37577f4e487b7100000000000000000000000000000000000000000000000000000000600052602160045260246000fd5b826004811115612a70577f4e487b7100000000000000000000000000000000000000000000000000000000600052602160045260246000fd5b1415612b0c5760048585604051612a889291906143bc565b90815260200160405180910390206000612ae687878080601f016020809104026020016040519081016040528093929190818152602001838380828437600081840152601f19601f8201169050808301925050505050505086610597565b815260200190815260200160002060000160049054906101000a900460ff169050612b0d565b5b949350505050565b6000612b2033610ea0565b15612b3457601436033560601c9050612b43565b612b3c6139b2565b9050612b44565b5b90565b600084848080601f016020809104026020016040519081016040528093929190818152602001838380828437600081840152601f19601f8201169050808301925050505050505090507f2f0000000000000000000000000000000000000000000000000000000000000081600081518110612beb577f4e487b7100000000000000000000000000000000000000000000000000000000600052603260045260246000fd5b602001015160f81c60f81b7effffffffffffffffffffffffffffffffffffffffffffffffffffffffffffff191614612c58576040517f08c379a0000000000000000000000000000000000000000000000000000000008152600401612c4f9061467e565b60405180910390fd5b6000868686604051602001612c6f939291906143ec565b60405160208183030381529060405290506000600382604051612c9291906143d5565b90815260200160405180910390208054612cab90614a0d565b905014612ced576040517f08c379a0000000000000000000000000000000000000000000000000000000008152600401612ce49061471e565b60405180910390fd5b6001600282604051612cff91906143d5565b908152602001604051809103902060009054906101000a900463ffffffff16612d2891906148d5565b600282604051612d3891906143d5565b908152602001604051809103902060006101000a81548163ffffffff021916908363ffffffff1602179055508383600383604051612d7691906143d5565b90815260200160405180910390209190612d919291906139ba565b506040518060a0016040528060011515815260200160011515815260200160011515815260200160011515815260200160011515815250600482604051612dd891906143d5565b90815260200160405180910390206000612df984612df4612b15565b610597565b815260200190815260200160002060008201518160000160006101000a81548160ff02191690831515021790555060208201518160000160016101000a81548160ff02191690831515021790555060408201518160000160026101000a81548160ff02191690831515021790555060608201518160000160036101000a81548160ff02191690831515021790555060808201518160000160046101000a81548160ff0219169083151502179055509050507f0db027888a30ca08149af1347f6ce2f48daffedd9d6d21ab6249c4d802ce592f818585604051612edd93929190614625565b60405180910390a17f22e28c30c57984f353ee8f992671b9dbc19ac7481ed115987fd1050a5b229f3881612f0f612b15565b6001806001806001604051612f2a97969594939291906145af565b60405180910390a150505050505050565b600073ffffffffffffffffffffffffffffffffffffffff168673ffffffffffffffffffffffffffffffffffffffff16141580612f8557508480612f7b5750835b80612f835750805b155b612fc4576040517f08c379a0000000000000000000000000000000000000000000000000000000008152600401612fbb9061465e565b60405180910390fd5b6040518060a001604052808615158152602001851515815260200184151581526020018315158152602001821515815250600489896040516130079291906143bc565b908152602001604051809103902060006130658b8b8080601f016020809104026020016040519081016040528093929190818152602001838380828437600081840152601f19601f820116905080830192505050505050508a610597565b815260200190815260200160002060008201518160000160006101000a81548160ff02191690831515021790555060208201518160000160016101000a81548160ff02191690831515021790555060408201518160000160026101000a81548160ff02191690831515021790555060608201518160000160036101000a81548160ff02191690831515021790555060808201518160000160046101000a81548160ff0219169083151502179055509050507f22e28c30c57984f353ee8f992671b9dbc19ac7481ed115987fd1050a5b229f3888888888888888886040516131539897969594939291906144da565b60405180910390a15050505050505050565b600073ffffffffffffffffffffffffffffffffffffffff168373ffffffffffffffffffffffffffffffffffffffff161415806132115750600360048111156131d6577f4e487b7100000000000000000000000000000000000000000000000000000000600052602160045260246000fd5b82600481111561320f577f4e487b7100000000000000000000000000000000000000000000000000000000600052602160045260246000fd5b145b8061328c575060026004811115613251577f4e487b7100000000000000000000000000000000000000000000000000000000600052602160045260246000fd5b82600481111561328a577f4e487b7100000000000000000000000000000000000000000000000000000000600052602160045260246000fd5b145b6132cb576040517f08c379a00000000000000000000000000000000000000000000000000000000081526004016132c29061465e565b60405180910390fd5b60006004811115613305577f4e487b7100000000000000000000000000000000000000000000000000000000600052602160045260246000fd5b82600481111561333e577f4e487b7100000000000000000000000000000000000000000000000000000000600052602160045260246000fd5b14156133e25780600486866040516133579291906143bc565b908152602001604051809103902060006133b588888080601f016020809104026020016040519081016040528093929190818152602001838380828437600081840152601f19601f8201169050808301925050505050505087610597565b815260200190815260200160002060000160006101000a81548160ff02191690831515021790555061383d565b6001600481111561341c577f4e487b7100000000000000000000000000000000000000000000000000000000600052602160045260246000fd5b826004811115613455577f4e487b7100000000000000000000000000000000000000000000000000000000600052602160045260246000fd5b14156134f957806004868660405161346e9291906143bc565b908152602001604051809103902060006134cc88888080601f016020809104026020016040519081016040528093929190818152602001838380828437600081840152601f19601f8201169050808301925050505050505087610597565b815260200190815260200160002060000160016101000a81548160ff02191690831515021790555061383c565b60036004811115613533577f4e487b7100000000000000000000000000000000000000000000000000000000600052602160045260246000fd5b82600481111561356c577f4e487b7100000000000000000000000000000000000000000000000000000000600052602160045260246000fd5b14156136105780600486866040516135859291906143bc565b908152602001604051809103902060006135e388888080601f016020809104026020016040519081016040528093929190818152602001838380828437600081840152601f19601f8201169050808301925050505050505087610597565b815260200190815260200160002060000160036101000a81548160ff02191690831515021790555061383b565b6002600481111561364a577f4e487b7100000000000000000000000000000000000000000000000000000000600052602160045260246000fd5b826004811115613683577f4e487b7100000000000000000000000000000000000000000000000000000000600052602160045260246000fd5b141561372757806004868660405161369c9291906143bc565b908152602001604051809103902060006136fa88888080601f016020809104026020016040519081016040528093929190818152602001838380828437600081840152601f19601f8201169050808301925050505050505087610597565b815260200190815260200160002060000160026101000a81548160ff02191690831515021790555061383a565b600480811115613760577f4e487b7100000000000000000000000000000000000000000000000000000000600052602160045260246000fd5b826004811115613799577f4e487b7100000000000000000000000000000000000000000000000000000000600052602160045260246000fd5b14156138395780600486866040516137b29291906143bc565b9081526020016040518091039020600061381088888080601f016020809104026020016040519081016040528093929190818152602001838380828437600081840152601f19601f8201169050808301925050505050505087610597565b815260200190815260200160002060000160046101000a81548160ff0219169083151502179055505b5b5b5b5b6000600486866040516138519291906143bc565b908152602001604051809103902060006138af88888080601f016020809104026020016040519081016040528093929190818152602001838380828437600081840152601f19601f8201169050808301925050505050505087610597565b81526020019081526020016000206040518060a00160405290816000820160009054906101000a900460ff161515151581526020016000820160019054906101000a900460ff161515151581526020016000820160029054906101000a900460ff161515151581526020016000820160039054906101000a900460ff161515151581526020016000820160049054906101000a900460ff16151515158152505090507f22e28c30c57984f353ee8f992671b9dbc19ac7481ed115987fd1050a5b229f38868686846000015185602001518660400151876060015188608001516040516139a29897969594939291906144da565b60405180910390a1505050505050565b600033905090565b8280546139c690614a0d565b90600052602060002090601f0160209004810192826139e85760008555613a2f565b82601f10613a0157803560ff1916838001178555613a2f565b82800160010185558215613a2f579182015b82811115613a2e578235825591602001919060010190613a13565b5b509050613a3c9190613ab9565b5090565b508054613a4c90614a0d565b6000825580601f10613a5e5750613a7d565b601f016020900490600052602060002090810190613a7c9190613ab9565b5b50565b6040518060a001604052806000151581526020016000151581526020016000151581526020016000151581526020016000151581525090565b5b80821115613ad2576000816000905550600101613aba565b5090565b6000613ae9613ae484614827565b614802565b905082815260208101848484011115613b0157600080fd5b613b0c8482856149cb565b509392505050565b600081359050613b2381614d1a565b92915050565b600081519050613b3881614d1a565b92915050565b600081359050613b4d81614d31565b92915050565b600081359050613b6281614d48565b92915050565b600081359050613b7781614d5f565b92915050565b60008083601f840112613b8f57600080fd5b8235905067ffffffffffffffff811115613ba857600080fd5b602083019150836001820283011115613bc057600080fd5b9250929050565b600082601f830112613bd857600080fd5b8135613be8848260208601613ad6565b91505092915050565b600060208284031215613c0357600080fd5b6000613c1184828501613b14565b91505092915050565b600060208284031215613c2c57600080fd5b6000613c3a84828501613b29565b91505092915050565b60008060208385031215613c5657600080fd5b600083013567ffffffffffffffff811115613c7057600080fd5b613c7c85828601613b7d565b92509250509250929050565b600080600060408486031215613c9d57600080fd5b600084013567ffffffffffffffff811115613cb757600080fd5b613cc386828701613b7d565b93509350506020613cd686828701613b14565b9150509250925092565b60008060008060008060008060e0898b031215613cfc57600080fd5b600089013567ffffffffffffffff811115613d1657600080fd5b613d228b828c01613b7d565b98509850506020613d358b828c01613b14565b9650506040613d468b828c01613b3e565b9550506060613d578b828c01613b3e565b9450506080613d688b828c01613b3e565b93505060a0613d798b828c01613b3e565b92505060c0613d8a8b828c01613b3e565b9150509295985092959890939650565b60008060008060608587031215613db057600080fd5b600085013567ffffffffffffffff811115613dca57600080fd5b613dd687828801613b7d565b94509450506020613de987828801613b14565b9250506040613dfa87828801613b68565b91505092959194509250565b60008060008060608587031215613e1c57600080fd5b600085013567ffffffffffffffff811115613e3657600080fd5b613e4287828801613b7d565b94509450506020613e5587828801613b3e565b9250506040613e6687828801613b3e565b91505092959194509250565b600080600060408486031215613e8757600080fd5b600084013567ffffffffffffffff811115613ea157600080fd5b613ead86828701613b7d565b93509350506020613ec086828701613b68565b9150509250925092565b60008060008060408587031215613ee057600080fd5b600085013567ffffffffffffffff811115613efa57600080fd5b613f0687828801613b7d565b9450945050602085013567ffffffffffffffff811115613f2557600080fd5b613f3187828801613b7d565b925092505092959194509250565b60008060008060008060608789031215613f5857600080fd5b600087013567ffffffffffffffff811115613f7257600080fd5b613f7e89828a01613b7d565b9650965050602087013567ffffffffffffffff811115613f9d57600080fd5b613fa989828a01613b7d565b9450945050604087013567ffffffffffffffff811115613fc857600080fd5b613fd489828a01613b7d565b92509250509295509295509295565b600060208284031215613ff557600080fd5b600082013567ffffffffffffffff81111561400f57600080fd5b61401b84828501613bc7565b91505092915050565b6000806040838503121561403757600080fd5b600083013567ffffffffffffffff81111561405157600080fd5b61405d85828601613bc7565b925050602061406e85828601613b14565b9150509250929050565b6000806040838503121561408b57600080fd5b600083013567ffffffffffffffff8111156140a557600080fd5b6140b185828601613bc7565b92505060206140c285828601613b53565b9150509250929050565b6140d581614969565b82525050565b6140e48161497b565b82525050565b6140f38161497b565b82525050565b61410281614987565b82525050565b60006141148385614863565b93506141218385846149cb565b61412a83614b46565b840190509392505050565b60006141418385614874565b935061414e8385846149cb565b82840190509392505050565b600061416582614858565b61416f8185614863565b935061417f8185602086016149da565b61418881614b46565b840191505092915050565b600061419e82614858565b6141a88185614874565b93506141b88185602086016149da565b80840191505092915050565b60006141d1601b83614863565b91506141dc82614b57565b602082019050919050565b60006141f4601c83614863565b91506141ff82614b80565b602082019050919050565b6000614217601683614863565b915061422282614ba9565b602082019050919050565b600061423a601483614863565b915061424582614bd2565b602082019050919050565b600061425d601883614863565b915061426882614bfb565b602082019050919050565b6000614280601c83614863565b915061428b82614c24565b602082019050919050565b60006142a3601983614863565b91506142ae82614c4d565b602082019050919050565b60006142c6601783614863565b91506142d182614c76565b602082019050919050565b60006142e9601783614863565b91506142f482614c9f565b602082019050919050565b600061430c601883614863565b915061431782614cc8565b602082019050919050565b600061432f601783614863565b915061433a82614cf1565b602082019050919050565b60a08201600082015161435b60008501826140db565b50602082015161436e60208501826140db565b50604082015161438160408501826140db565b50606082015161439460608501826140db565b5060808201516143a760808501826140db565b50505050565b6143b6816149bb565b82525050565b60006143c9828486614135565b91508190509392505050565b60006143e18284614193565b915081905092915050565b60006143f88286614193565b9150614405828486614135565b9150819050949350505050565b600060208201905061442760008301846140cc565b92915050565b600060208201905061444260008301846140ea565b92915050565b600060a08201905061445d60008301886140ea565b61446a60208301876140ea565b61447760408301866140ea565b61448460608301856140ea565b61449160808301846140ea565b9695505050505050565b60006020820190506144b060008301846140f9565b92915050565b600060208201905081810360008301526144d1818486614108565b90509392505050565b600060e08201905081810360008301526144f5818a8c614108565b905061450460208301896140cc565b61451160408301886140ea565b61451e60608301876140ea565b61452b60808301866140ea565b61453860a08301856140ea565b61454560c08301846140ea565b9998505050505050505050565b6000604082019050818103600083015261456d818688614108565b90508181036020830152614582818486614108565b905095945050505050565b600060208201905081810360008301526145a7818461415a565b905092915050565b600060e08201905081810360008301526145c9818a61415a565b90506145d860208301896140cc565b6145e560408301886140ea565b6145f260608301876140ea565b6145ff60808301866140ea565b61460c60a08301856140ea565b61461960c08301846140ea565b98975050505050505050565b6000604082019050818103600083015261463f818661415a565b90508181036020830152614654818486614108565b9050949350505050565b60006020820190508181036000830152614677816141c4565b9050919050565b60006020820190508181036000830152614697816141e7565b9050919050565b600060208201905081810360008301526146b78161420a565b9050919050565b600060208201905081810360008301526146d78161422d565b9050919050565b600060208201905081810360008301526146f781614250565b9050919050565b6000602082019050818103600083015261471781614273565b9050919050565b6000602082019050818103600083015261473781614296565b9050919050565b60006020820190508181036000830152614757816142b9565b9050919050565b60006020820190508181036000830152614777816142dc565b9050919050565b60006020820190508181036000830152614797816142ff565b9050919050565b600060208201905081810360008301526147b781614322565b9050919050565b600060a0820190506147d36000830184614345565b92915050565b60006040820190506147ee60008301856143ad565b6147fb60208301846140cc565b9392505050565b600061480c61481d565b90506148188282614a3f565b919050565b6000604051905090565b600067ffffffffffffffff82111561484257614841614b17565b5b61484b82614b46565b9050602081019050919050565b600081519050919050565b600082825260208201905092915050565b600081905092915050565b600061488a826149b1565b9150614895836149b1565b9250827fffffffffffffffffffffffffffffffffffffffffffffffffffffffffffffffff038211156148ca576148c9614ab9565b5b828201905092915050565b60006148e0826149bb565b91506148eb836149bb565b92508263ffffffff0382111561490457614903614ab9565b5b828201905092915050565b600061491a826149b1565b9150614925836149b1565b9250817fffffffffffffffffffffffffffffffffffffffffffffffffffffffffffffffff048311821515161561495e5761495d614ab9565b5b828202905092915050565b600061497482614991565b9050919050565b60008115159050919050565b6000819050919050565b600073ffffffffffffffffffffffffffffffffffffffff82169050919050565b6000819050919050565b600063ffffffff82169050919050565b82818337600083830152505050565b60005b838110156149f85780820151818401526020810190506149dd565b83811115614a07576000848401525b50505050565b60006002820490506001821680614a2557607f821691505b60208210811415614a3957614a38614ae8565b5b50919050565b614a4882614b46565b810181811067ffffffffffffffff82111715614a6757614a66614b17565b5b80604052505050565b6000614a7b826149b1565b91507fffffffffffffffffffffffffffffffffffffffffffffffffffffffffffffffff821415614aae57614aad614ab9565b5b600182019050919050565b7f4e487b7100000000000000000000000000000000000000000000000000000000600052601160045260246000fd5b7f4e487b7100000000000000000000000000000000000000000000000000000000600052602260045260246000fd5b7f4e487b7100000000000000000000000000000000000000000000000000000000600052604160045260246000fd5b6000601f19601f8301169050919050565b7f6572726f725f7075626c696343616e4f6e6c79537562735075626c0000000000600082015250565b7f6572726f725f706174684d757374537461727457697468536c61736800000000600082015250565b7f6572726f725f6e6f456469745065726d697373696f6e00000000000000000000600082015250565b7f6572726f725f6d75737442654d69677261746f72000000000000000000000000600082015250565b7f6572726f725f73747265616d446f65734e6f7445786973740000000000000000600082015250565b7f6572726f725f6e6f5065726d697373696f6e546f5472616e7366657200000000600082015250565b7f6572726f725f73747265616d416c726561647945786973747300000000000000600082015250565b7f6572726f725f6d6967726174696f6e4973436c6f736564000000000000000000600082015250565b7f6572726f725f6e6f53616872655065726d697373696f6e000000000000000000600082015250565b7f6572726f725f6e6f44656c6574655065726d697373696f6e0000000000000000600082015250565b7f6572726f725f6e6f744f776e65724f66454e534e616d65000000000000000000600082015250565b614d2381614969565b8114614d2e57600080fd5b50565b614d3a8161497b565b8114614d4557600080fd5b50565b614d5181614987565b8114614d5c57600080fd5b50565b60058110614d6c57600080fd5b5056fea264697066735822122015a53088cbac08deb759816b5a74a3aa4fdf266e95b52c04a3bc48aef14fa93364736f6c63430008040033",
    "linkReferences": {},
    "deployedLinkReferences": {}
}